:020000040802F0
:100000000000052481D0020875C5020891C50208C8
:10001000ADC50208C9C50208E5C502080000000018
:10002000000000000000000000000000F18F030845
:1000300001C6020800000000819003087D6B0308E0
:10004000D1D00208D1D00208D1D00208D1D0020804
:10005000D1D00208D1D00208D1D00208D1D00208F4
:10006000D1D00208D1D00208D1D00208D1D00208E4
:1000700005C60208D1D00208D1D00208D1D00208AA
:10008000D1D00208D1D0020811C60208D1D002088E
:10009000D1D00208D1D00208D1D002081DC6020872
:1000A000D1D0020825C60208D1D00208D1D002085A
:1000B000D1D0020831C60208D1D00208D1D002083E
:1000C000D1D00208D1D00208D1D00208D1D0020884
:1000D000D1D00208D1D00208D1D00208D1D0020874
:1000E000D1D00208D1D0020800000000D1D002080F
:1000F000D1D00208D1D00208D1D00208D1D0020854
:10010000D1D00208D1D00208D1D00208D1D0020843
:100110003DC60208D1D00208D1D0020849C6020863
:10012000D1D00208D1D00208D1D00208D1D0020823
:10013000D1D0020855C60208D1D00208D1D0020899
:1001400000000000000000000000000000000000AF
:10015000D1D00208D1D00208D1D00208D1D00208F3
:10016000D1D00208D1D00208D1D00208D1D00208E3
:10017000D1D00208D1D00208D1D00208000000007E
:10018000D1D00208D1D00208D1D00208D1D00208C3
:10019000D1D00208D1D00208D1D00208D1D00208B3
:1001A000D1D00208D1D00208D1D00208000000004E
:1001B000D1D00208D1D00208D1D00208D1D0020893
:1001C000D1D00208D1D002080000000000000000D9
:1001D0000000000000000000D1D002080000000074
:1001E000000000000000000000000000000000000F
:1001F0000000000000000000D1D00208D1D00208A9
:10020000D1D00208D1D0020800000000D1D00208ED
:1002100061C602086DC60208D1D00208D1D002081A
:10022000D1D0020800000000D1D002080000000078
:10023000D1D00208D1D0020800000000D1D00208BD
:10024000D1D00208D1D00208D1D00208D1D0020802
:10025000D1D00208D1D00208D1D00208D1D00208F2
:10026000D1D00208D1D00208D1D00208D1D00208E2
:10027000D1D00208D1D00208D1D00208000000007D
:10028000D1D00208D1D00208D1D00208D1D00208C2
:1002900000000000D1D00208D1D002080000000008
:1002A00000000000D1D00208D1D00208D1D002084D
:1002B000D1D00208D1D00208D1D00208D1D0020892
:0C02C000D1D00208D1D00208D1D0020831
:1002D00010B5054C237833B9044B13B10448AFF380
:1002E00000800123237010BD3807002400000000A7
:1002F000943C040808B5034B1BB103490348AFF312
:10030000008008BD000000003C070024943C040865
:1003100010F8012B11F8013B012A28BF9A42F7D0AF
:10032000D01A70470000000000000000000000002C
:1003300001F0FF01102A2BDB10F0070F08D010F896
:10034000013B013A8B422DD010F0070F42B3F6D19A
:10035000F0B441EA012141EA014122F007047FF0B3
:1003600000070023F0E80256083C85EA010586EA0A
:10037000010685FA47F5A3FA87F586FA47F6A5FA46
:1003800087F68EB9EED1F0BC01F0FF0102F0070252
:1003900032B110F8013B013A83EA010313B1F8D1FD
:1003A0000020704701387047002D06BF35460338DE
:1003B000073815F0010F07D1013015F4807F02BF17
:1003C000013015F4C03F0130F0BC0138704700BF68
:1003D000034613F8012B002AFBD1181A0138704785
:1003E00053B94AB9002908BF00281CBF4FF0FF319C
:1003F0004FF0FF3000F088B9ADF1080C6DE904CE84
:1004000000F006F8DDF804E0DDE9022304B07047EF
:100410002DE9F047089D8E4604468846002B4AD1B8
:100420008A42174662D9B2FA82F64EB1C6F120036B
:1004300001FA06F820FA03F3B74043EA0808B4408B
:100440004FEA174E1FFA87FCB8FBFEF1230C0EFB98
:10045000118843EA084301FB0CF29A4209D9FB18C0
:1004600001F1FF3080F0EA809A4240F2E7800239E1
:100470003B449A1AA3B2B2FBFEF00EFB102243EAF1
:10048000024300FB0CFC9C4509D9FB1800F1FF322C
:1004900080F0D6809C4540F2D3803B44023840EA4D
:1004A0000140A3EB0C0300211DB1F3400022C5E97C
:1004B0000032BDE8F0878B4205D90DB1C5E90001D6
:1004C00000210846F5E7B3FA83F1002946D17345C8
:1004D00002D3824200F20581841A6EEB03020120EE
:1004E0009046002DE5D0C5E90048E2E7002A00F07B
:1004F0009080B2FA82F6002E40F0A4808A1A030C93
:100500004FEA174E80B2BCB20121B2FBFEFC0EFBDB
:100510001C2243EA024304FB0CF29A4207D9FB185F
:100520000CF1FF3802D29A4200F2E080C4469B1AD6
:10053000B3FBFEF20EFB123340EA034302FB04F46A
:100540009C4207D9FB1802F1FF3002D29C4200F214
:10055000CA8002461B1B42EA0C40A5E7C1F12006F7
:100560008B4022FA06F71F430EFA01F420FA06F335
:100570002EFA06FE4FEA1749234300FA01F81FFA44
:1005800087FCBEFBF9F01C0C09FB10EE44EA0E449C
:1005900000FB0CFEA64502FA01F209D93C1900F154
:1005A000FF3A80F09C80A64540F2998002383C4496
:1005B000A4EB0E041FFA83FEB4FBF9F309FB13440A
:1005C0004EEA044403FB0CFCA44508D93C1903F192
:1005D000FF3E80F08280A4457FD9023B3C4443EA41
:1005E0000040A4EB0C04A0FB02EC64457346E1461A
:1005F00062D35FD05DB1B8EB030264EB090404FA87
:1006000006F622FA01F31E43CC40C5E9006400213E
:100610004FE7B1FBF2FC010C41EA0E4180B240EA27
:1006200001423B4638463C46B846BE462026B1FB12
:10063000F7F1A2EB080241EA0C4166E7014618E730
:1006400010462CE7C6F120022EFA02F3B740B14063
:1006500020FA02F24FEA174E0A43B3FBFEF8BCB28F
:100660000EFB1833110C41EA034108FB04F9B040BA
:1006700089454FEA104380B23ED9791808F1FF3C12
:1006800001D289451FD8A1EB0901B1FBFEF909FB95
:1006900004F80EFB191192B242EA0142424529D2F6
:1006A000BA1809F1FF31C4D24245C2D2A9F1020100
:1006B0003A44BEE7F0459DD2BEEB02036CEB070C5B
:1006C0000138E14696E7A7EB09094944A8F1020C75
:1006D000B1FBFEF909FB04F8DBE773467FE7504600
:1006E00066E70846FDE63B44023A33E7ACF1020C0C
:1006F0003B441CE749469CE7A1EB0901C446B1FB1A
:10070000FEF909FB04F8C4E7704700BF024B4FF441
:100710008E025A61704700BF0020005230B5044677
:1007200089B00D4610F0D6FD04F178433D4A4FF4F0
:100730008E00B3F5003F506139D200202021002205
:1007400001230691CDE90405CDE90223BFF34F8FC4
:10075000BFF36F8F344C0022636923F4003363616D
:10076000C4F85022BFF34F8FBFF36F8F01A902A8C7
:1007700010F046FE00283CD1636913F4003311D118
:10078000BFF34F8FBFF36F8FC4F85032BFF34F8F5B
:10079000BFF36F8F636943F400336361BFF34F8F1F
:1007A000BFF36F8F10F0AAFD002009B030BD1F4BC2
:1007B0002344B3F5003F01D20120BFE71C4B234483
:1007C000B3F5003F18D31B4B2344B3F5003F15D3BB
:1007D000194B2344B3F5003F14D3184B2344B3F50E
:1007E000003F0DD3164B2344B3F5003F0CD2062037
:1007F000A4E7012009B030BD02209FE703209DE758
:1008000005209BE7042099E70723202200200121EF
:100810000692CDE904350B4B9C42CDE90201C1D8CB
:1008200094E700BF0020005200ED00E00000FEF75A
:100830000000FCF70000FAF70000F8F70000F6F7F8
:100840000000F4F7FEFF0F082DE9F04105460E46C3
:10085000174610F03FFDBFF34F8FBFF36F8F224B52
:1008600000245A6922F400325A61C3F85042BFF39F
:100870004F8FBFF36F8FC7B1DFF8708008E02A6831
:10088000203556F8243008349A422AD1A7420CD990
:1008900045450AD806EB84022946012010F070FD78
:1008A0000028ECD00320BDE8F0810F4A536913F40F
:1008B000003311D1BFF34F8FBFF36F8FC2F85032A7
:1008C000BFF34F8FBFF36F8F536943F4003353610E
:1008D000BFF34F8FBFF36F8F10F010FD0020BDE806
:1008E000F0810220BDE8F08100ED00E0DFFF0F089D
:1008F00000BE7047BFF34F8F0549064BCA6802F42C
:10090000E0621343CB60BFF34F8F00BFFDE700BF32
:1009100000ED00E00400FA0570B5244C237843B1E3
:10092000234B1B782BB30221224A00231170237022
:1009300070BD214D214C29782378994211D01C4A51
:10094000127802B31B4A02201D4E10705A1CD2B2FC
:10095000502A15D01046207091424FF00000F054FC
:10096000E6D100231749184A2B7023700B701370BF
:1009700070BD16490D22164814F0C6FA0121D3E7BE
:1009800000200246E7E703EB83010D4E1048F25CBE
:1009900001EB81010F4B03EB810114F0B5FA054B1C
:1009A000012229781A702378D0E700BF0C4E00246A
:1009B0004E110024F84B0024FA4B0024F94B00247C
:1009C000682C00249A1F0024991F00241803002477
:1009D00028080024B82C0024F0B5202785B0174E35
:1009E0004FF47A75164C02230022A0210094304661
:1009F000CDE9017511F06AF80A2016F061F9E319E2
:100A00003A46A0210093304602234034CDE90175D7
:100A100011F05CF80A2016F053F91A22022330462E
:100A2000A0210094CDE90125402211F04FF80A20C1
:100A300005B0BDE8F04016F043B900BF840A0024B9
:100A4000444F0024F0B5194E85B04FF47A75202735
:100A5000174C02234FF48072A02100943046CDE958
:100A6000017511F033F80A2016F02AF9E3194FF452
:100A70009072A0210093304602234034CDE90175E5
:100A800011F024F80A2016F01BF90C22022330463C
:100A9000A0210094CDE901254FF4A07211F016F8C1
:100AA0000A2005B0BDE8F04016F00AB9840A002417
:100AB000DC4E002410B54FF47A7084B01621084C37
:100AC00002234FF400720094CDE90110A0210548E3
:100AD00010F0FCFF0A2004B0BDE8104016F0F0B89A
:100AE0002C010024840A002430B50C4685B0114640
:100AF0004FF47A750246022300940448CDE90115AB
:100B0000A02110F0E3FF05B030BD00BF840A00242F
:100B100030B50C4685B091B24FF47A750246022387
:100B200000940548CDE90115A02110F0CFFFB0FADF
:100B300080F0400905B030BD840A002430B50C4671
:100B400085B091B24FF47A750246022300940548AD
:100B5000CDE90115A02111F0BDF8B0FA80F04009EF
:100B600005B030BD840A00242DE9F84F164F4FF030
:100B70000508164D164E174C3B7895F800B02046E8
:100B800096F80090DFF854A087F800B08AF800309B
:100B900085F8009086F80080FFF71AFC637DC0B2EC
:100BA00083420ED00C4B04228AF800B087F80090E4
:100BB000327085F8008093E80300072384E803007F
:100BC0006375BDE8F88F00BFF8100024F71000240B
:100BD000F61000242C010024E03C0408F910002445
:100BE0001448154B1549164A10B4164C90F800C01D
:100BF00084F800C093F800C080F800C0082091F885
:100C000000C0087083F800C002F1580C0E4B32F996
:100C1000021FB3F90000884203DCB3F902008842E6
:100C200001DA99881180624503F10603EFD15DF87E
:100C3000044B7047F8100024F7100024F61000242D
:100C4000424F0024F9100024440300241848194B93
:100C500019491A4A10B41A4C90F800C084F800C020
:100C600093F800C080F800C04FF0090C087881F8B4
:100C700000C0187002F14C00124BF2EC017A93EDB7
:100C8000007AF4EEC77AF1EE10FA06D493ED017A09
:100C9000F4EEC77AF1EE10FA02DD996842F8041C0E
:100CA000824203F10C03E8D15DF8044B704700BFAA
:100CB000F8100024F7100024F6100024DC4E002465
:100CC000F91000245404002410B50446FFF780FBFB
:100CD000024664232146034892B2BDE8104015F055
:100CE000ABB800BF940700242DE9F04F934C91B0AE
:100CF00023782BB9012015F0E3FF2378002BF9D0DE
:100D00008F4B1A78002A00F0FD82DFF8A4A20021A0
:100D10008C4B46F2A8170C46DFF898B293F8009077
:100D20009AF800805FFA89F90B915FFA88F80991C7
:100D30000D9106910A910C91CDE907119BF8005095
:100D4000002D3DD0069BCBB915F058FE0BF010FFDF
:100D5000064615F0D1FE7B4932467B480B787B492D
:100D600020F016FF7848FFF733FB642382B2764900
:100D7000774815F061F8774A069B13700134A4B2E6
:100D8000B4F57A7F00F086819AF80030002B00F0ED
:100D90003982714B1B78002B00F069816D4B1B78F9
:100DA000002B40F06E816D4B1B78002B40F0AF8222
:100DB000012015F085FF9BF80030002BDED1069551
:100DC000674D2B78002B40F0418101345D4BA4B27C
:100DD0001E789AF80050B4F57A7FF6B2EDB200F0C2
:100DE000EB80002E00F0FE80079B01339BB2312B7D
:100DF000079300F28380B9F1000F40F08F806423E5
:100E00000E225849524815F017F8574B574A1B788D
:100E100057490493574B4C481B780393564B1B7808
:100E20000293564B1B780193554B1B780093554BFF
:100E300012781B7820F0ACFE4348FFF7C9FA642310
:100E400082B24149424814F0F7FF002240214E4847
:100E500010F09EFC002280214B4810F099FC0023EA
:100E60004A4A09931380A84532D0002D5AD1484AE6
:100E7000138801331380089B002B00F00481642346
:100E80000D224449324814F0D7FF15F0B7FD0BF09E
:100E90006FFE804615F030FE2A4B42463E491B78D5
:100EA000294820F075FE2848FFF792FA642382B2A1
:100EB0002549274814F0C0FF16B1384B01221A709B
:100EC000002308930120A846B14615F0F9FE35E746
:100ED000012EF7D0002DF5D0013747F22F53BFB2C6
:100EE0009F42EFD92E4B2F4F1B78002B40F0F28002
:100EF0003A78002A00F0EE801F46E3E72A4B0EA95D
:100F0000186800231A4616F0A7F8002800F05E8142
:100F100000230793B9F1000F3FF471AFA845D1D07A
:100F2000002DA4D046F2A917642311221F49BF1B2C
:100F3000074814F081FFBFB2C4E700BFD90C0024FA
:100F400078070024DC0C002400000024283E04085C
:100F5000940700247A070024800700247B070024DC
:100F600081070024603D0408F4100024FA100024D6
:100F7000183D0408F5100024F6100024F710002492
:100F8000F8100024F9100024001402580E0D00245B
:100F9000460C0024843D0408943D040806110024F6
:100FA000111100244A0C002488070024703D040815
:100FB000BA0C00244F0C00240221944810F0ECFBE2
:100FC0000CF060F9924B1860002E40F0CB80914BF2
:100FD0001A7832B10B9A0132D2B2022A0B9200F285
:100FE0000D813446B9F1000F3FF43DAF6423112267
:100FF00089498A4814F020FF894B8A4A1B788A491C
:1010000004938A4B8A481B788A4F03938A4B1B7838
:1010100002938A4B1B780193894B1B780093894B71
:1010200012781B7820F0B4FD8148FFF7D1F96423D2
:1010300082B27F49794814F0FFFE834A00233B7057
:1010400046F2A817138801331380FEE67848FFF7AD
:10105000BFF9642382B27649704814F0EDFE002394
:101060002B70B2E69AF80030002B00F0CB800BF02A
:1010700045FE012015F024FE744B1B78002B3FF435
:1010800092AEFFF737FC642329227149634814F0BC
:10109000D3FE15E702215D4810F07EFB0CF0F2F85C
:1010A0000A9B0133DBB21A460A93594B1D2A18607A
:1010B00000F2A880674B1C78002CD3D0664B1C78BC
:1010C000002C00F01C819AF80030002B00F09A8070
:1010D000002463E6089B002B63D164230A225F4946
:1010E0004E4814F0A9FE15F089FC0BF0E3FB804696
:1010F00015F002FD5A4942464D4820F049FD4C4842
:10110000FFF766F9642382B24949444814F094FE1B
:10111000434B444A1B7844490493444B44481B784E
:101120000393454B1B780293444B1B780193444B2C
:101130001B780093434B12781B7820F029FD3C4824
:10114000FFF746F9642382B23949344814F074FE3B
:10115000B8FA88F32F4A5B09089301233B700027F4
:101160001370AFE60C9B002B3FD13E4B1B783E4CDF
:101170000D9A0C932388934200F0808000220992FC
:1011800024490A7802F0FF046AB30B9A0D930132E6
:10119000D2B2022A0B922FD900231C460B700B935C
:1011A00022E63248FFF790FD15F028FC0BF0E0FC3A
:1011B000804615F0A1FC2E4B42462E491B781C4858
:1011C00020F0E6FC1A48FFF77FFD86E70E9B1988A2
:1011D00058680BF029FB0E9B586818F071F80E98B0
:1011E00018F06EF894E60D93FEE51E4B1A78002A6F
:1011F000BCD121490A70B9E70024F5E534461E70D8
:101200000B96EFE60BF064FDFFF774FB001002583D
:1012100074070024DB0C00244C3D040894070024D0
:10122000F4100024FA100024183D0408F5100024DE
:10123000000000244A0C0024F6100024F7100024BB
:10124000F8100024F9100024480C00247A07002428
:10125000B83D04088007002479070024083E0408EC
:10126000143E04080A1100240E0D0024E83C040872
:10127000DC0C0024E43D040806110024099A013224
:10128000D2B2132A09927FF67BAF3048FFF71CFDDC
:1012900015F0B4FB0BF06CFC089015F02DFC2C4BFA
:1012A000089A1B782B492C4820F072FC2A48FFF73B
:1012B0000BFD2A4B2A4A1B782A4904932A4B2648BD
:1012C0001B780393294B1B780293294B1B780193BE
:1012D000284B1B780093284B12781B7820F058FC81
:1012E0001D48FFF7F1FC2549254A0220238810708C
:1012F0000A8801320A800022CDE9082240E70BF07B
:10130000D1FD41E501221A7014F0FEFFFDE41D4CF1
:101310001D48216820F0CCFB236801211B480F9356
:10132000FFF7FCF930B10023194A1A48137020F076
:1013300027FCA6E601220FA91448FFF785FA00282A
:10134000F1D0154820F01CFCEDE700BFE83C040894
:10135000DC0C0024F43C040800000024F4100024F9
:10136000FA100024183D0408F5100024F61000249B
:10137000F7100024F8100024F9100024440C002475
:10138000061100247C0700245C3E040800000E08BF
:101390007B070024A83E0408743E0408F0B5164EEE
:1013A00083B0164D33782A78154C164F32703B7047
:1013B0002278154B2A7014221B782270CBB9134A5D
:1013C000322301A98DF8060012681148ADF80420F7
:1013D000032214F031FD3378217801223B702B7801
:1013E0002270042233700A2329700948094914F035
:1013F00023FD03B0F0BD00BFF8100024F710002457
:10140000F6100024F91000244E110024C43E0408F4
:1014100028080024140300242DE9F0415D4C102518
:101420005D4920680E785D4A05625D481578067052
:10143000DFF890815B4898F80030057017205A4F0C
:10144000087032213B7083F001032046117088F848
:101450000030B4F85E50B4F85C6013F0B1FD98F859
:1014600000102046514CFF22C1EB0121214414F011
:1014700077FE3A78C2EB0223E15C2344AA2901D02B
:10148000BDE8F081ADB25B78761B302BB6B25FD091
:10149000723BD9B20729F3D81002072BF0D801A16B
:1014A00051F823F03F150208811402088114020844
:1014B0008114020881140208F9140208E7140208D2
:1014C000C5140208092EDBD1801A7921384A851CFF
:1014D000204411700121374B645B0079364A1C802F
:1014E00098701170CCE7092ECAD131497820324B5F
:1014F000012208701A70C3E7801A2044C378082BB1
:101500002FD00E2EBCD1022BBAD129497724294BDA
:1015100001220C700221847859701C700479417981
:101520009C708479D9701C71C179047A407A5971A0
:101530009C712249D871204B0A701A70A0E70A2EBC
:101540009ED11B4972201C4B012208701A7097E72C
:101550001B4B1A78012A93D0172E91D101221A70B1
:101560008EE70C2E8CD1134A7724114953700379DE
:1015700085780C7093704179C37984790020D1709B
:1015800053711570147101220C490B4B08701A70BD
:1015900076E700BF28080024F7100024F610002486
:1015A000F9100024F8100024FF4B0024044C002400
:1015B000662C00245C2C0024572C0024562C00247C
:1015C000532C0024004C00242DE9F04FDFF8188143
:1015D0008DB03C4F1621DFF814B198F800203B780D
:1015E000DFF80CA1DFF80C91374E15208BF80020A6
:1015F00043F2AA028AF8003088F80010322301A9C9
:101600003870ADF80420022230480A2414F014FC8B
:101610009AF8002098F8003001218BF800203A78E1
:101620008AF800300A23397088F8002004222849FB
:10163000264814F001FCB9F80030264D0133A9F812
:101640000030EB69DB0603D5FFF7E6FE337833B9EC
:10165000013C642015F034FB14F0FF04F1D1B9F81B
:10166000002002A81C4920F093FA02A8FEF7B0FE61
:10167000642382B202A9194814F0DEFB3378F3B96F
:10168000B9F800300E2B05D89AF8002098F80030F1
:101690003978AAE7124D02AC0FCD0FC495E80700C8
:1016A00003C402A82270FEF793FE0246642302A937
:1016B00092B20A4814F0C0FB0A4B01221A700DB016
:1016C000BDE8F08FF6100024532C002428080024D5
:1016D00014030024004C0040C83E04089407002472
:1016E000E43E04084E110024F7100024F9100024F1
:1016F000F8100024244E00248C488D4A8D4B8E49CE
:1017000070B404781C7014788C4B0470182408781A
:101710001B78107000208A4A0C70108013B10121D0
:101720000B4611808749097811B143F002031380F9
:101730008549087820B143F0040300201380087025
:101740008249087820B143F0080300201380087014
:101750007F49087820B143F01003002013800870FF
:101760007C49087820B143F02003002013800870E2
:101770007949097811B143F08003138077490978DA
:1017800011B143F4007313807549764809780478E1
:101790004C2900F0A88024B143F480530024138026
:1017A0000470522902D143F4005313806E49087823
:1017B00020B143F480430020138008706B496C48CB
:1017C0000978038011B143F040011180694909781B
:1017D00019B1118841F4807111806749097811B1FC
:1017E00043F480730380654B654C1B68654913F0B7
:1017F0001003247809883DD0038801258C4243F4E6
:1018000080630380604B1D702FD0604B1B78002BD2
:101810002BD15F4C00235F4924780B80002C32D001
:1018200003885D4E5D4D334303802878431C0128B7
:10183000DBB22FD9042B5A4A28BF00232B70137810
:10184000002B2FD0574A012312780B801AB140F297
:10185000011213460A80544A1278002A58D043F4E1
:10186000007301209BB20B801DE0138843F480635A
:101870001380CEE7444D8C422B70CAD0434B1B786B
:10188000002BC6D0F1E723464849494A0C70138023
:1018900070BC704710882B7030431080404A13781A
:1018A000002BCFD11846434A1578434A12780AB321
:1018B00043F00202414E013092B236780A8026B1DE
:1018C00040F202421A4392B20A803D4B1B7813B198
:1018D00042F400620A803B4B1B78DBB10DBB42F443
:1018E00080530B800CE07CB143F4C0530021138083
:1018F00001705BE735B143F0080301309BB20B8008
:101900000228C1D00024BFE743F4006313804DE7F1
:101910000120C8E71DB142F008030B80B4E713466D
:10192000EEE741F2080313430B80ADE7F810002403
:10193000F7100024F9100024F61000242A4E002489
:101940003C2C0024294E002464110024631100243F
:101950006211002461110024D14E002400030024F0
:1019600012030024274E0024264E0024DC0C002401
:101970003A2C0024BA0C002410110024000400406A
:10198000D84E002434030024500C0024DB0C002427
:10199000522C00245E1F00240080FFFF261F00241D
:1019A000174E0024164E0024154E0024382C002417
:1019B0005C1F0024FD100024144E0024224E00243D
:1019C000214E0024204E002430B4124B124D1349F6
:1019D00095F800C0098812481B8880F800C05B1A7F
:1019E000104C0021104894F800C001800F4A1048A4
:1019F000127885F800C0057893FBF2F225701E245A
:101A000004700C4802800C480C4A0380118030BCE2
:101A1000704700BFC44E0024F8100024B84E0024C4
:101A2000F9100024F7100024704E00249C4E00246E
:101A3000F61000246E4E00246A4E00246C4E0024E2
:101A40002D492E4A2E4838B52E4C91F800C02E4B09
:101A500084F800C092F800C0007881F800C01D2111
:101A600093F800C0197082F800C0002837D1274BC6
:101A7000274A93ED007AD3ED017A2649B4EEE77A4E
:101A8000254C09881288F1EE10FA2378A2EB0102A6
:101A9000224C234DB4BF0121002192FBF3F334F813
:101AA00011C092B21F4C9BB235F81110B4F93040FE
:101AB0004CB91D4803801D4B1D48A3F800C01D4BA9
:101AC0000280198038BD521A1949A3EB0C03194C36
:101AD0000A801649144A20800880138038BDFFF719
:101AE00073FF154C002315481549164A23600360FF
:101AF0000B60136038BD00BFF8100024F7100024FD
:101B0000091F0024F9100024F6100024044E0024BC
:101B1000C44E0024B84E00249C4E0024B04E002435
:101B2000B44E0024444F00246E4E0024704E002416
:101B30006A4E00246C4E00248C4E00247C4E0024FF
:101B4000744E0024844E002470B41249124E134A7D
:101B500008883478124D1278124995F800C00C703C
:101B600012FB00F1104C114B89B286F800C01B88A3
:101B700026780B442E7020259BB225700C4CB3FBAD
:101B8000F2F220800B480C4C03800C4B21801A8011
:101B900070BC7047944E0024F81000249C4E002422
:101BA000F7100024F9100024F6100024B84E002489
:101BB0008C4E0024744E00247C4E0024844E00245D
:101BC00070B41249124E134A48883478124D127874
:101BD000124995F800C00C7012FB00F1104C114B2B
:101BE00089B286F800C01B8826780B442E70212508
:101BF0009BB225700C4CB3FBF2F260800B480C4C8E
:101C000043800C4B61805A8070BC7047944E002416
:101C1000F81000249C4E0024F7100024F910002432
:101C2000F6100024B84E00248C4E0024744E00247C
:101C30007C4E0024844E002430B51549154C164ABC
:101C4000B1F804E020781178144A154B107011FB9C
:101C50000EF21B8892B21348134405789BB225708C
:101C6000B3FBF1FC10490C780470222008700F4976
:101C7000A1F804E00E498A800E4A0F4993800F4A6A
:101C80000F4BA2F836E00122A1F804C01A7030BD53
:101C9000944E0024F81000249C4E0024F9100024D7
:101CA000B84E0024F7100024F61000248C4E0024B7
:101CB0007C4E0024744E0024844E0024444F0024A3
:101CC000A10200242DE9F843724E73493378734F13
:101CD000DFED734A3B70B1F90430724A07EE103AF7
:101CE000B1F90630704DB8EEC77A92ED065AD2EDD2
:101CF000075A6E4CC4EE877A92ED086A94F800C0D9
:101D00006B48D2ED096ADFF8C08187EE244A07EEFE
:101D1000103A2B7885F800C03370B8EEC77A27EEFA
:101D2000277A27EE855A67EEA55ABCEEC77ABCEE35
:101D3000C55A27EE866A17EE103AFCEEE55A15EE04
:101D4000109A67EEA66A9BB2BCEEC66AA0FB03CEF1
:101D5000DFF878C1FCEEE66AACF8009015EE909AD8
:101D60004FEADE0EACF8029016EE109ADFF860C172
:101D7000ACF8009016EE909AACF802904FF01C0C64
:101D800044F6206984F800C0DFF848C18CED004AB1
:101D9000DFF844C1CCED007ADFF840C1ACF8009028
:101DA0004FF01909DFF838C18CF80090DFF834C122
:101DB000ACF800303F4BA3F800E098F80030002B5F
:101DC00049D1D2ED0E5AB1F90030B1F90A20B1F97A
:101DD00030C09A1A06EE902AB1F90C20F8EEE66AA5
:101DE0009B1A07EE103A66EEA56AB8EEC77A27EEA0
:101DF000A66A27EE257ABDEEC66A67EE877A16EEEA
:101E0000103AFDEEE77A19B22B4BC3ED006A83ED71
:101E1000017A17EE903A80FB012E1BB280FB032063
:101E2000CA17C2EBEE024FEAE37ECEEBE000DFF82A
:101E3000B8E0AEF80010AEF802302049204B1A800E
:101E400092B2588080B28B88BCF1000F17D19A1AD9
:101E50001B1A0A804B80FFF7F3FD327821783A7025
:101E60002A7898F8003032701F22297022705BB1F6
:101E7000FFF7E2FE134B01221A70BDE8F8831A4403
:101E800003440A804B80E6E7FFF75EFEFFF798FE0B
:101E9000EEE700BFF8100024444F0024F91000249E
:101EA00000409C46DC4E0024F7100024F61000246D
:101EB0001F85EB51BA4E0024044E0024944E00249A
:101EC000B04E0024664E0024091F00243C4E00241E
:101ED000384E0024304E0024344E0024C44E0024DA
:101EE0009C4E0024B84E0024B44E0024564BB3F947
:101EF0001C2010B586B072B1544B0022544918888A
:101F000031F8023F053398427DDD0132072AF7D1CF
:101F10004FF0090C01E0B3F810C04E494E4AB1F938
:101F20000230A2F802C013B94C4A00201060B4EE8F
:101F3000E00A4B4C4B48D4ED107AF1EE10FA4CBF4E
:101F400030EEC00A30EE600AF4EEC07AF1EE10FA1C
:101F500005D502780132D2B2022A027033D93F4A43
:101F600001334FF0000ED2ED007A1BB280F800E092
:101F700070EEA70A63454B80C2ED000A05DA3A4AC3
:101F80001278002A43D106B010BD07EE903AA1F8AE
:101F900002E00021354BF8EEE77A35481160012167
:101FA000344A80EEA77A11701A788A4280ED017A5D
:101FB000E9D1D4ED017A022277EEC77A1A70C4ED26
:101FC000017A06B010BD284B01242B4A1B785470AF
:101FD000002BD8D0294AB7EEC00A294B92ED016AEE
:101FE000D3ED015AB7EEC66A2649B7EEE57A264820
:101FF0008DED020B53EC172B8DED006B1FF0C8FD20
:10200000224B1C70BFE7224B33F812C085E71B48F8
:10201000B7EEC00A1A4A90ED016AD2ED015AB7EE46
:10202000C66A0493B7EEE57A1A49174853EC172BA2
:102030008DED020B8DED006B1FF0AAFD134B0122FD
:102040001A7006B010BD00BF444F0024C64E0024D5
:10205000CE020024404E00240C1F002468070024F8
:10206000DC4E002464070024241F002454110024A3
:102070004C4E0024654E0024DC100024544E0024F5
:102080005C4E0024003F040864000024684E0024D5
:10209000C0020024403F0408564BB3F91A2010B583
:1020A00086B072B1544B00225449188831F8023F6F
:1020B000053398427DDD0132072AF7D14FF0090C34
:1020C00001E0B3F80EC04E494E4AB1F90030A2F813
:1020D00000C013B94C4A00201060B4EEE00A4B4C2B
:1020E0004B48D4ED0F7AF1EE10FA4CBF30EEC00A37
:1020F00030EE600AF4EEC07AF1EE10FA05D50278FF
:102100000132D2B2022A027033D93F4A01334FF072
:10211000000ED2ED007A1BB280F800E070EEA70A44
:1021200063450B80C2ED000A05DA3A4A1278002AAC
:1021300043D106B010BD07EE903AA1F800E00021AF
:10214000354BF8EEE77A354811600121344A80EECC
:10215000A77A11701A788A4280ED007AE9D1D4ED1D
:10216000007A022277EEC77A1A70C4ED007A06B0C0
:1021700010BD284B01242B4A1B781470002BD8D09B
:10218000294AB7EEC00A294B92ED006AD3ED005AF6
:10219000B7EEC66A2649B7EEE57A26488DED020B02
:1021A00053EC172B8DED006B1FF0F2FC224B1C70D3
:1021B000BFE7224B33F812C085E71B48B7EEC00AD1
:1021C0001A4A90ED006AD2ED005AB7EEC66A04933F
:1021D000B7EEE57A1A49174853EC172B8DED020B31
:1021E0008DED006B1FF0D4FC134B01221A7006B06A
:1021F00010BD00BF444F0024C64E0024EE02002450
:10220000404E00240C1F002460070024DC4E0024F4
:102210005C070024241F0024551100244C4E002488
:10222000644E0024DC100024544E00245C4E002434
:10223000843F040864000024684E0024E002002467
:10224000C43F0408604A70B5107882B05F4DB5F99C
:102250002E10B5F93230F8B1002900F092805C4CB4
:102260000433B5F9041054F823305A4E03FB01F13E
:10227000594B07EE901AD3ED006AB8EE677AF8EE84
:10228000666AC7EE267A554BC3ED007A00231370B9
:102290000122534B1A7036E0524A534892ED010A1C
:1022A00080ED010A00295DD0494C0433B5F90410D2
:1022B00054F82330474E03FB01F1474B07EE901AC9
:1022C000D3ED006AB8EE677AF8EE666AC7EE267A52
:1022D000424BD3ED000A454B70EEE70AD3ED017A8D
:1022E00070EEA70AC2ED010AFFF700FE404BD3EDE6
:1022F000017A404BF5EEC07AF1EE10FA48BFF1EEEC
:10230000677AC3ED017A3C4A3C4B12781B889A42AB
:102310000CBF344B364B5A68394B5A60394B1B78DB
:10232000C3B1394B1B78ABB9B5F92E30002B37D080
:102330002949364A0968126863693548CDE90021A0
:10234000344922691FF024FC254B1B787BBB324BA0
:1023500001221A700023314AB3601370C4E90433B8
:1023600002B070BD1B4E04332D4936F8133091ED89
:10237000007A07EE903A164CF8EEE77A67EE877A25
:10238000A6E7144E0433264936F8133091ED007A4F
:1023900007EE903A0E4CF8EEE77A67EE877A72E72E
:1023A000738932891F491A481FF0F2FBCCE7184D98
:1023B0002846FEF70DF81C4A034641191068E850FC
:1023C00093888B80C3E700BF081F0024444F00247C
:1023D000741F00248C1F00241C1F0024041F0024D1
:1023E000001F00245C4E0024544E0024DC4E0024C8
:1023F0004C4E0024444E0024D84E002434030024C4
:10240000C84E0024241F0024294E0024201F00242D
:102410006400002414400408684E00246E1F002449
:10242000304E00240840040834400408824AB0F5C5
:10243000807F824B2DE9F04F814C4FF001051278DF
:1024400083B025701A7004D00223237003B0BDE856
:10245000F08F7C4B00227C4E1A7032687B48536AA6
:102460007B499BB2D76A7B4A0B8011881380026834
:10247000DFF850822A4402606A1A77481A443A44C4
:10248000764FA8F80020764A1380764B19804FF4D7
:1024900080610FF081F93B7813BB734A1360734A74
:1024A0001360734B1B78002B40F0B780DFF8189255
:1024B0000123704D3B702B7833B96F4B1B781BB1E8
:1024C0006E4B1B78002B3CD16D4F3B78002B39D1E4
:1024D00099F80030002BB7D06A4ADFF8F0B155E028
:1024E000B8F8003044F62062934200F093806649C9
:1024F000664809780078DFF8D09101436DD06449CF
:1025000000230B705D4B1A78002AD1D15748DFF8B1
:1025100058C101685F4D21B1DCF80020B2FBF1F237
:102520002A60534A1278002A7BD02A880025056049
:102530005948CCF80050016058490A8001221A70AD
:10254000B6E74F4F564B4FF0010A4E4A4FF0000886
:1025500083F800A0534B3168C3F810801388DFF86C
:102560006CB1013B38480192CB62F3609BF80030BC
:10257000C1F82480CB63082111F058FF324811F0D4
:10258000F7FE019A85F800A087F80080464B0021ED
:1025900012881B8907EE903A444BF8EEE77A93EDE8
:1025A000007A404B67EE877A19619BF8000089F842
:1025B0000010FCEEE77A17EE903A12FA83F33268D5
:1025C000013B5162D063F360D3620122384B1A7031
:1025D0000223237003B0BDE8F08F99F800100029A2
:1025E0008DD133490978002989D1294908780028F3
:1025F00086D13048057049F65700834213D99B1A9B
:102600009BB2A8F800302C4A2C4803801368013391
:10261000136075E7DFF8B09074E7294811F038FED1
:1026200044E72A6082E7B3F57A7FECD81A4493B284
:10263000A8F80030E7E700BFF6100024F5100024EA
:10264000F410002401030024A0090024C04E00243B
:10265000104E00240E4E002400040258FF100024E7
:10266000E0100024DE1000244C2C0024482C002410
:102670000A1F0024674E0024664E0024FE1000242A
:10268000D04E0024C44E0024BE0200241A1F002491
:10269000E2100024442C0024402C0024D44E0024BA
:1026A000A04E002400040040444F0024344E002477
:1026B000024E0024EA100024E4100024E810002454
:1026C00054090024D64E0024034E00249C4E0024BE
:1026D0002DE9F041344E354D337895F800C0344C37
:1026E000344F86F800C03B7094F800C0324B85F838
:1026F00000C04FF02D0C1B7884F800C02BB92F4B75
:102700001B78002B37D0BDE8F0812D4F2D4E3D7842
:10271000735D002946D001EB030C2B4C642101387A
:102720005FFA8CFC01FB054410F801EF591C04F81A
:1027300003E0CBB26345F7D106F805C0002AE2D02A
:102740000CF10402204C6421204BD2B201FB054461
:1027500013F8011B04F80C100CF1010C5FFA8CFC4F
:102760006245F5D16B1C7255DBB2502B08BF0023BC
:102770003B70BDE8F0810A464FF47A730146144875
:1027800013F05AFB3378217801223B702B782270AA
:10279000042233700A2329700D480C49BDE8F0412A
:1027A00013F04ABB9C46C7E7F8100024F71000243A
:1027B000F6100024F9100024FE4B00244E110024D2
:1027C000FA4B0024682C0024B82C002414030024A5
:1027D000280800242DE9F04FDFF8C8A09DB0DFF8ED
:1027E000C8B04FF00A0C9AF80020DFF8C0908BF8C0
:1027F00000202A4ADFF8B8800092002299F8006091
:1028000098F800408DF8042042008DF806108AF8F0
:10281000006089F8004088F800C08DF80520A9B351
:1028200003461F4A684602EB430E00EB410702468F
:1028300003E0264664464FF01A0C02323EF9023B92
:10284000BA42C3F30725DBB255719371F1D14FF052
:102850001A028AF800401CAC8BF8006088F800204F
:102860004A1E490089F800C0D2B2073104EB420485
:10287000C9B204F8695C1CAC04EB420202F8683C83
:102880000122FFF725FF1DB0BDE8F08F0721684644
:102890000122FFF71DFF1DB0BDE8F08FAA820008DE
:1028A000444F0024F8100024F9100024F7100024ED
:1028B000F610002410B584B0114C4000114B8DF877
:1028C0000C1009128DF809004FF01A0C2078012223
:1028D0008DF80B100C498DF80A2008700B210B485D
:1028E000217009211C7883F800C000230470084877
:1028F0008DF80830019001A8FFF7EAFE04B010BD82
:10290000F7100024F6100024F9100024F810002419
:10291000AA8200082DE9F04FDFF8E8A0034633480B
:1029200099B09AF800204FF00C0C8DF80A10027044
:102930002F48304A047892F8009014702E4A8AF892
:1029400000900192002280F800C08DF808209A00C3
:102950008DF80920002941D001A8284A00EB810BFD
:1029600002EB830E024603E0A14664464FF01B0CC7
:1029700004325EF8048B5A45C8F30767C8F307466C
:10298000C8F307255FFA88F3D770167155719371F4
:10299000EAD1164A8AF800404FF01B0482F80090F2
:1029A000144A82F800C0124A14704C1E0722890093
:1029B000E4B2073102EB8402114CC9B2C4F80080C2
:1029C000841860326A4402F85C7C01226670A5704B
:1029D000E370FFF77DFE19B0BDE8F08F072101A875
:1029E0000122FFF775FE19B0BDE8F08FF910002441
:1029F000F6100024F7100024AA820002DC4E002406
:102A00001C4E0024F81000241D4B1E481E491F4A6E
:102A100010B51F4C93F800C0D2F800E084F800C055
:102A200090F800C083F800C01A4B91F800C093EDF5
:102A3000017AD3ED0E7A80F800C0122077EE877A03
:102A4000D2F804C0144A087003211720C3F85CE0D0
:102A5000C3F860C0C3ED197AC2F818E0C2F81CC010
:102A6000FFF758FF0D4B6820B3F90010FFF722FF66
:102A70000B4B6920B3F90010BDE81040FFF71ABFF7
:102A8000F8100024F7100024F6100024044E00244F
:102A9000F9100024DC4E0024180D0024704E002490
:102AA0006E4E002430B5800085B0184D10EE101A1F
:102AB000174C01228DF80900164B287894F800C0B5
:102AC0001870C1F3072314488DF80E1080F800C069
:102AD00012488DF80A20019000208DF80D308DF8F5
:102AE00008000D2028701B202070C1F307640C48DB
:102AF0008DF80B4080ED000AC1F307400B218DF8E3
:102B00000C0001A8FFF7E4FD05B030BDF71000246C
:102B1000F6100024F9100024F8100024AA82000204
:102B20001C4E00240F4984460F4A1048104B00B534
:102B300091F800E083B080F800E010780870192068
:102B400019781870117047F2AA010122019104212D
:102B50008DF807C00DEB0100FFF7BAFD03B05DF87B
:102B600004FB00BFF8100024F7100024F910002423
:102B7000F61000248D498E4A8E4B2DE9F0478E4E7B
:102B800086B00C7845F2843592F800C04FF0300ED4
:102B9000347004461878AC4281F800C0107083F895
:102BA00000E054D045F64F35651BB5FA85F56D0943
:102BB000002D4CD140F2CB77BC423AD07F4FDFF8AA
:102BC000409297F8008039F81890A14571D0DFF84D
:102BD0000C82DFF830A298F800903AF819A0A245CC
:102BE00056D0DFF82492B9F80090A14570D082F851
:102BF00000E01922087004A81A7047F2AA0370496D
:102C0000012204936F4B0D701B786F498DF81330C0
:102C10000B70042186F800C0FFF75AFD6B4A6C4B1D
:102C2000157001223D7088F800501A7006B0BDE89A
:102C3000F087684C2588684C2478AC4277D0002314
:102C40005E49664A0B70137006B0BDE8F0870870E5
:102C5000192030215C4D187004A85F4B117047F2A9
:102C6000AA011B780122049104218DF813302B70E6
:102C700086F800C0FFF72CFD45F64F32012350487F
:102C80005249944203700B70D9D1554A1370D6E75C
:102C900009F101095FFA89F9B9F1010F40F2838066
:102CA000504C88F800502478002C55D000233B70FD
:102CB000CAE708F101085FFA88F8B8F1020F87F84F
:102CC00000805CD8454B00221A7006B0BDE8F08742
:102CD0004FF47A77082604AA434C0223A0210092DD
:102CE0004FF4407241488DF810500595CDE90167C9
:102CF0000EF0ECFE0A2013F0E3FF02234FF44072C3
:102D0000A02100943948CDE901670EF0E3FF237854
:102D10006268374937481EF03BFF3648FDF758FBDD
:102D2000642382B23349344813F086F88CE7087084
:102D3000192047F2AA01E4B2187004A8224B0491AA
:102D4000042182F800E0012286F800C08DF81340CB
:102D50001C70FFF7BDFC72E70870192182F800E0D3
:102D600047F2AA020D24197004920421012204A83A
:102D700086F800C08DF81340FFF7AAFC96E70870AC
:102D8000312182F800E01D4A197086F800C092E8EF
:102D900003000122049004A8ADF814100621FFF7E7
:102DA00097FC3D708EE788F800907FE7F8100024CC
:102DB000F7100024F6100024F9100024552C0024EC
:102DC000184E0024DA4E0024D84E0024392C00245A
:102DD000502C002434030024194E0024542C0024C9
:102DE0001A4E0024284E00246C070024840A002474
:102DF0003C40040864000024940700246840040850
:102E00000C03002408030024260300240E4BF0EEDC
:102E1000046A0E491B880E4A07EE903A0D480E4B85
:102E2000F8EE677A10B487EEA67A0C7804701478FE
:102E300018780C703521094C1070197084ED007AE7
:102E40005DF8044B704700BFBA020024F81000245C
:102E5000F7100024F9100024F61000245C1100245F
:102E60003249B5EEC00A324A324B3348F1EE10FA1D
:102E700000B591F800C092F800E080F800C081F839
:102E800000E04FF0360118781970107043DBF0EE57
:102E9000047AB4EE670AF1EE10FA37FE800AF5EE16
:102EA000C00AF1EE10FA2CDBF0EE047AF4EEE70A39
:102EB000F1EE10FA22DCF1EE600A20482049D0ED54
:102EC000007A204B27EE800A1F4A67EEA07A098815
:102ED0001B88BDEEC00A1288FDEEE77A5B1A521A13
:102EE0001A4810EE101A17EE90CA194494440B4673
:102EF00017490380A1F800C05DF804FBF8EE040A4E
:102F0000DBE7F8EE047AF4EEE70AF1EE10FAD2D538
:102F1000F0EE040AD1E7F8EE047AB4EE670AF1EEB7
:102F200010FA48BFB0EE670AB9E700BFF8100024F6
:102F3000F7100024F6100024F91000245C1100247E
:102F4000B8020024B6020024B40200245811002460
:102F50005611002429492A4A2A4B2DE9F043B1F899
:102F600000E00025284987B04FEA1E2792F800802C
:102F70000E88EC4667F307052449370A244C6EF3A4
:102F80000F254FF0000E088867F3070E2149C02770
:102F900066F30F2E060A098866F3174560F31F656E
:102FA000080A60F3174E187861F31F6E1A49B1F9D9
:102FB000026091F90390194981F80080184908705E
:102FC000372111701A221A700FCCACE80F0094E868
:102FD0000300012268468CF8041015218DF8057055
:102FE000CDF80B50CDF80FE08DF813908DF81460EC
:102FF000FFF76EFB07B0BDE8F08300BFB20200240C
:10300000F7100024F6100024AE020024B0020024C1
:10301000B03C0408AC020024444F0024F910002402
:10302000F8100024304B314ADFF8E0C02DE9F047BA
:103030002F4D1B78DFF8D8A02B7013782D4FEB7035
:1030400001332D4E137037239AF800E02B710023C3
:103050006B70AB7000283DD0DFF8AC90291D274C79
:103060004B4609EB000814F8012F03F8012B4345E8
:1030700001F8012FF7D1431DC21D011D0024DBB251
:1030800009F80040D2B2C9B2994603F1010869704B
:10309000174D1B4CE8181B4B29461A7050234FF64E
:1030A000FF728AF8003011F8013B53408142DBB2D5
:1030B00034F8133083EA1222F5D105F80920120AF8
:1030C00050238CF800E005F808204F2233703A7046
:1030D000BDE8F0870C4B4FF005090722042118705A
:1030E0004FF006084B46D2E7040D0024100D0024D3
:1030F0001C110024F8100024F7100024560C0024A2
:103100007C6E0408181100247C0C0024F9100024A3
:10311000F6100024000000007349744A7448754B8F
:103120002DE9F0410C78744D04701078D5ED010A4A
:1031300008705621187895ED000A19701070FFF785
:103140008FFE6E4B6E4C1B886E4A6F4F12886F4E0F
:1031500023816F4B6F49E28023603A783388098876
:103160009A42A18000F0A6806B4B1B68C4F80A301D
:1031700064226A4BDFF8F8811B8898ED007A07EE2D
:10318000903A02FB03F3664AF8EEE77AB2F90020C0
:1031900093FBF2F367EE877A2382624BFDEEE77AC8
:1031A0001B88638217EE903AE381FEF7A5FA5E4929
:1031B0005E4B0988DFF8BCC1A1825D495D4A098880
:1031C000C4F81CC043F28A2CE1825B49A4F828C0F1
:1031D00047F2124C0988B2F9020021835749A4F83A
:1031E00032C046F64D3CB1F90010E0856184A185FE
:1031F000E1865349A4F83CC0B1F90010E18421866E
:103200006187B3F900102184E187B2F90010B2F9A7
:103210000420A184A4F84010B3F90410B3F90230DB
:103220002287A1866385A4F84230464BA4F8482043
:103230001B88454A07EE903A444BA4F846101B8879
:10324000F8EEE77A3188A4F85030414B16881B8895
:1032500098ED007AA4F852303E4B67EE877AA4F8D6
:1032600044001B88A4F84A603878568892888842BF
:103270006383A4F84E20384B6A68A4F84C602C682D
:10328000C3ED137A1C655A651ED0344A3449B2F92D
:103290000420096801FB02F207EE902A9FED105B03
:1032A000B8EE676B86EE057BB7EEC77B83ED167ACB
:1032B000BDE8F0812B4A0023128862F30F032A4AEB
:1032C000128862F31F4351E7284A92ED007AB8EE64
:1032D000477A83ED167ABDE8F08100BFAFF3008036
:1032E0000000000000408F40F8100024F710002478
:1032F000F9100024F6100024C84E0024BC0200245B
:10330000581E002456110024D84E002434030024F3
:1033100007000100581100240C1F0024621F002424
:10332000362C0024C64E00243C2C00248C4E002455
:10333000D24E0024844E0024D44E0024AA0200243D
:10334000A80200246A1F00247C4E0024D64E0024CC
:103350005C1F002404110024DC4E0024444F002490
:10336000C04E0024EC100024F0100024E4100024CF
:10337000304E0024050003002DE9F0473B4C3C4D46
:1033800020783C4B404229783B4A18403B4EDFF8BE
:10339000108140EA01206178394F4942DFF804C1C9
:1033A000DFF8049119406B78DFF800E141EA03216E
:1033B0005389184393891943324BB3F800A0324B19
:1033C0001880307859800021387098F800002980E2
:1033D000307057269CF80000218088F80000B9F86A
:1033E0000000A9F800109880BEF80000AEF80010A8
:1033F000D880D089518A1881B2F852005981A3F837
:103400000CA0D18FD8818CF80060B2F8406019828E
:103410005E82B2F842601D499E82B2F8446009782B
:10342000DE82B2F846601A4D1E83B2F848601985F4
:103430005E83D68A17499E83168B1748DE83B2F8BF
:103440004A60164C5E84D66CB2F850205E621A84D4
:103450002B686A680B60C36C4A608B602268636883
:10346000CA600B61836D4B61BDE8F087DC100024FE
:10347000D81000240080FFFF581E0024F8100024FC
:10348000F91000243A2C0024380D0024241F0024B5
:103490005C4E0024180D0024DC4E00244C4E002409
:1034A000F7100024F6100024E60C0024E40C00249D
:1034B000194A1A481A4B1B4930B4056814781A483F
:1034C00004701878194C107040F6FF720878B4F840
:1034D00000C0521B187040F2223359209C450870DE
:1034E00017D81349A3EB0C0040F23B34114B097879
:1034F0001CFA80F092B2494212B221408C44084436
:10350000991C03EB4C0301EB400123F8022B8B4287
:10351000FBD130BC704700BFF8100024442C0024BD
:10352000F7100024F6100024F9100024EC0C0024FD
:10353000561E0024681100242DE9F04F002287B0A8
:10354000404C414923780492404A0B70137840491B
:1035500023700B783F4D13705A230B70FFF70CFF4D
:103560003D4B93F800C03D4B1E8840F2766303FB51
:103570000C53A3F846663A4B1F88002F5FD040F2E9
:103580003B332078314A324903FB0CFC0290049B08
:10359000107891F800A04FF44971DFF8D090DFF86F
:1035A000D080DFF8D0B00190059308E001333BF8FC
:1035B0001010DBB225F81E101146BB422CD2981910
:1035C0004A1C0CEB010E18F8004092B219F80000EA
:1035D000002CEBD0234C0133624404EB8000029CAE
:1035E000DBB2D0ED007A881C0494BB42019CCDED87
:1035F000037A02940CEB010481B20398CDF804A085
:103600004FF0520A25F814004FEA104025F8120036
:103610004FF001020592D2D3059B83B10C4B019A66
:1036200083F800A0094BDDED037A1A70064B049A6B
:103630001A70044B029A1A700B4BC3ED007A07B054
:10364000BDE8F08FF8100024F9100024F7100024D2
:10365000F610002468110024561E0024140D0024C6
:10366000120D0024180D00241C4E002420020024FA
:1036700040020024380D0024044B02689A4200D016
:103680007047034B02221A70704700BF004C004085
:10369000F84B002419491A4A1A4B1B4810B51B4C09
:1036A00091F800C0007884F800C014780C706C2188
:1036B0001C781970147010B9154B1B7833B1154B69
:1036C0000124154A1B78147063B110BD134B1B788D
:1036D000002BF4D10F49104A0978137001F0FF0450
:1036E0000029F2D1224640210D480EF051F8224621
:1036F00080210B48BDE810400EF04AB8F8100024B5
:10370000F7100024F6100024174E0024F9100024AE
:10371000144E0024DC0C0024522C0024FD10002444
:10372000001402581249134B134A1888B1F91E307D
:10373000B1F9541012885B1A1049B3FA83F330B40C
:103740005B090F4C0F4D94F800C01A4403440E4817
:1037500085F800C090F800C084F800C00C780470B0
:103760006F200A4C08702270094A137030BC7047F1
:10377000444F00243203002442030024F6100024A6
:10378000F8100024F9100024F7100024DA4E002469
:10379000D94E002430B5164C85B0217820B3F820DE
:1037A0003922E72500238DF80E50124D8DF80C308C
:1037B000114B8DF80B0001A8197070210F4B8DF87B
:1037C0000D20012219701A230B2123702B704FF446
:1037D00056430B4CADF80830022301948DF80A30A3
:1037E000FEF776FF05B030BD02460546DAE700BFBA
:1037F000F6100024F7100024F9100024F81000241B
:10380000AA8200081248134A134B144930B5144CCD
:1038100083B0057825701478124D04701C7803C9A4
:1038200014707122009028461A70ADF80410FCF74D
:10383000CFFD0446002268460621FEF749FF611CC1
:1038400001222846C9B2FEF743FF03B030BD00BFD6
:10385000F8100024F7100024F6100024C83C0408D7
:10386000F9100024281F00242E492F4A2F4B3048DE
:1038700070B4304C0D780078257014780C706E217F
:103880001C781970147000283ED12B4B1C88E0075F
:103890002DD4A1071FD4620711D4230702D470BC12
:1038A000FFF7B0BF254D264C0FCD0FC40FCD0FC471
:1038B00095E80F0007C4238070BCFFF7A3BF214E1B
:1038C0001F4D0FCE0FC596E80300230745F8040BE4
:1038D0002980E4D5E6E71C4E194D0FCE0FC596E8BA
:1038E0000300620745F8040B2970D6D5E7E7174EA9
:1038F000134D0FCE0FC53368A1074FEA134225F8C9
:10390000023B2A70C7D5E6E7114D0D4C0FCD0FC411
:103910000FCD0FC495E80F0084E80F0070BCFFF7CF
:1039200071BF00BFF8100024F7100024F610002427
:10393000382C0024F91000245E1F0024E440040801
:10394000281F0024CC400408B4400408A040040808
:10395000704004081549164A1648F8B50E78164BFB
:1039600006701078154C08701978154D11706D217E
:10397000228819702B88134E9A420BD0124F387838
:1039800078B9FFF707FF33780BB1002333702B882A
:103990002380F8BD3378002BFBD00B4F38780028FC
:1039A000EFD0FFF761FF3878EBE700BFF810002495
:1039B000F7100024F9100024F61000245A1F0024E8
:1039C0005C1F0024502C0024522C00241248134A5F
:1039D000134B144930B5144C83B005782570147816
:1039E000124D04701C7803C914707222009028468E
:1039F0001A70ADF80410FCF7EBFC04460022684690
:103A00000621FEF765FE611C01222846C9B2FEF7B9
:103A10005FFE03B030BD00BFF8100024F710002493
:103A2000F6100024D03C0408F91000242C010024D6
:103A30001248134A134B144930B5144C83B005781F
:103A400025701478124D04701C7803C91470732209
:103A500000902846ADF804101A70FCF7B9FC044633
:103A60006423694606220B4812F0E6F9611C012224
:103A70002846C9B2FEF72CFE03B030BDF810002472
:103A8000F7100024F6100024D83C0408F910002494
:103A90007C0C0024280800240E4900200E4A0F4BFD
:103AA00010B50F4C82B091F800C08DF8060084F874
:103AB00000C01478ADF804000C7076211878094C19
:103AC000107001221970684607210094FEF700FE6D
:103AD00002B010BDF8100024F7100024F6100024E6
:103AE000F9100024AA7A01002D4B2E4AF0B52E4C75
:103AF00083B01D7806462D4F25700C461578386822
:103B00001D702B4B1978117077221A7013F0DEFAA2
:103B1000D8B1082015F0C8FB05460190002837D021
:103B200020462C8015F0C0FB019B68605868A8B146
:103B3000224631461EF045FA002301A938681A468C
:103B400013F04EFAA8B903B0F0BD6423242219493A
:103B5000194803B0BDE8F04012F06EB9184615F0F0
:103B6000AFFB642323221549134812F065F903B013
:103B7000F0BD2822124964230F4812F05DF9019B21
:103B8000586815F09DFB019815F09AFB03B0F0BD45
:103B9000642322220B49084812F04EF903B0F0BD0D
:103BA000F8100024F7100024F910002488070024DE
:103BB000F61000241C4104089407002494410408D2
:103BC00068410408444104082049214A214838B585
:103BD0000C78214B0470147818780C7058211070F0
:103BE0001970FFF765FCFFF7A7FC1C481C4B40F25F
:103BF0007661B0F800C01B781A4D4CF4E64C1A4CB4
:103C000058422A7801FB03F3084024F803C04FEA26
:103C1000022C0132234420444F242A704CF0060227
:103C20009C805A8045F25552A3F87426FFF75CFF3A
:103C30000E4A0F49D2ED007A9FED0E7A0B8877EE8F
:103C4000877A0133C2ED007A0B8038BDF81000246A
:103C5000F7100024F9100024F6100024444F00242B
:103C6000561E0024100D002468110024D40C0024DA
:103C7000D00C002400C0CE444B1E274A9BB22DE935
:103C8000F042264D01F1020943701B0A244F1FFA2E
:103C900089F983702B7892F800E03B705C23214E09
:103CA0002B70502386F800E0137089B34FF6FF7C29
:103CB00000231D4CC25C013382EA0C02DBB2D2B29B
:103CC000994234F8122082EA1C2CF3D85FFA8CF265
:103CD000CCF3072C5C23441887F800E033705023A2
:103CE0002B704254494684F801C0FFF7FDFE07EEF1
:103CF000909A0E490E4AF8EEE77A91ED007A138811
:103D000077EE877A0133C1ED007A1380BDE8F08247
:103D10004FF0FF0C6246DDE7F6100024F710002498
:103D2000F9100024F81000247C6E0408D40C002440
:103D3000D00C0024144B15481549164A10B5164CE2
:103D400082B093F800C04FF0300E84F800C00478C1
:103D500091F800C01C7080F800C03A2013780F4C16
:103D60008DF803300133B4F800C0AA24087006218E
:103D7000684613708DF800408DF804E08DF805C09A
:103D8000FFF77AFF02B010BDF8100024F7100024EE
:103D9000F6100024100D0024F9100024444F0024D4
:103DA000194B1A481A491B4A30B51B4C85B01D786F
:103DB00025700478194D1C700C78137804703B241E
:103DC0008DF8073001330C70AA21154C13708F2227
:103DD000288823788DF804108DF808208DF80900C4
:103DE00083B9104B1B88002B14BF0222FE2206232E
:103DF000082101A88DF80A208DF80B30FFF73CFF51
:103E000005B030BD0222F2E7F8100024F7100024BC
:103E1000F6100024100D0024F9100024444F002453
:103E2000284E0024C64E002410B5144A82B0144B0C
:103E3000144C93F800C08DF805001349107882F8EF
:103E400000C04FF03C0C114A0870217810481970DE
:103E500011784378007863F07F0384F800C08DF810
:103E600000004C1C8DF803106846062114708DF874
:103E70000430FFF701FF02B010BD00BFF8100024AE
:103E8000F7100024F6100024F9100024100D00246F
:103E9000040D002470B4164D164E2B781648DB43E3
:103EA0001649174CDBB291F800C036F813206B7836
:103EB00082F0FF026D885340DBB236F8133083EA9C
:103EC0001223027822709D420E4A82F800C04FF001
:103ED000390202704FF051000B4A0870138003D072
:103EE000012070BCFFF7A0BF70BCFFF723BF00BF6D
:103EF000040D00247C6E0408F7100024F610002442
:103F0000F9100024F8100024020D00241C4A1D485A
:103F100038B51D4B92F802E093F800C000EB0E019B
:103F20001A4D1B4A85F800C00EF1010C4D788978B6
:103F3000184C45EA0125117821704E21164C11705C
:103F400051224FF6FF711A700023C25C01334A40C0
:103F5000DBB2D2B29C4534F8122082EA1121F4D8A7
:103F60000E4B8D42198004D00120FFF75DFF002029
:103F700038BDAEF10200C0B2FFF754F8012038BDE1
:103F8000040D0024540C0024F6100024F810002422
:103F9000F7100024F91000247C6E0408020D0024A0
:103FA0004C4B4FF03E0C4C4A2DE9F04FADB01B7816
:103FB0004A4D4FF0500E8DF8143013782C788DF850
:103FC00017300133464E1370322296F800900023CA
:103FD0008DF81820434A8DF819001470424A8DF864
:103FE000153082F80090020A8DF8163085F800C06E
:103FF00086F800E08DF81A20002961D005AA8846CD
:10400000DFF8F4B00721DFF8F4A00393029210E088
:104010003649013331F91220DBB2F9B204F89C2C95
:104020004345C2F3072204F89B2C31D2E146F44603
:10403000AE461A1801F1B0048F1C50251AF8026020
:104040006C441BF80220002EE2D0294C013304EB13
:104050008202029CDBB2D2ED007A0C440A1DB03120
:10406000CDED017A43450DEB0105D1B2019A05F87A
:104070009C2CC2F307256570C2F30745C2F30762A3
:10408000A5704FF05205E2704FF001020392CDD3BC
:10409000039B23B1174BDDED017AC3ED007A104B82
:1040A00002981D700D4B83F800E00E4B83F80090D2
:1040B0000D4B83F800C0FFF7DFFD2DB0BDE8F08F9A
:1040C00005AB072102930298FFF7D6FD2DB0BDE89E
:1040D000F08F00BF040D0024100D0024F710002401
:1040E000F6100024F9100024F8100024444F002496
:1040F000DC4E00241C4E0024B8010024EC010024F6
:1041000030B5194B5122194D19499C46194C2A704A
:104110000CF1060E0A705888DD8899883D232370BB
:10412000154B164C1A704FF6FF721CF8013B5340AA
:10413000E645DBB234F8133083EA1222F5D1104B96
:1041400095421A800BD14318312B04DD0320BDE8C2
:104150003040FFF769BEBDE83040FFF721BF0120C6
:10416000BDE83040FFF760BE040D0024F6100024C7
:10417000F7100024F9100024F81000247C6E0408C5
:10418000020D002430B585B0174D0023174CADF853
:104190000C10174994F800E091F801C009784CF030
:1041A000800C8DF80410297861F3070301316CF35A
:1041B0000F2329700A2162F317430E4A60F31F632D
:1041C000000A82F800E0CDF807308DF80B003F20A0
:1041D000094B0A4A1870502301A823701370FFF787
:1041E0004BFD05B030BD00BF100D0024F6100024BB
:1041F000040D0024F9100024F8100024F710002406
:1042000070B584B0184A194E00238DF80B00000ACF
:1042100092F801C009218DF80C0030784CF0200C88
:10422000134D60F30703013095F800E06CF30F23A2
:10423000307090780F4C60F31743D07860F31F63B1
:1042400001A8CDF80730137822788DF804300A4B96
:1042500083F800E0094B1A70422250232A70237021
:10426000FFF70AFD04B070BD040D0024100D0024FA
:10427000F7100024F6100024F9100024F810002490
:10428000DFF8A8C0F0B59CF8013085B01F4E63F090
:104290007F039CF800C01E4C8DF8083033788DF8F1
:1042A00004C08DF8073001331A4F33701A4D94F85B
:1042B00000C01A4E8DF8092008B3194BADF80A104A
:1042C000595C032A18D0052A16D0164B33F9113041
:1042D000DAB2C3F307238DF80D3050230A2101A869
:1042E00033702370432387F800C08DF80C202B70A7
:1042F000FFF7C2FC05B0F0BD00221346EBE70A4B06
:104300008DF80B005B5C8DF80A30DAE7100D0024A5
:10431000F6100024F9100024F8100024F7100024EF
:10432000B8010024444F002488010024040D002417
:1043300070B584B0184A194E00238DF80B00000A9E
:1043400092F801C009218DF80C0030784CF0200C57
:10435000134D60F30703013095F800E06CF30F2371
:10436000307090780F4C60F31743D07860F31F6380
:1043700001A8CDF80730137822788DF804300A4B65
:1043800083F800E0094B1A70452250232A702370ED
:10439000FFF772FC04B070BD040D0024100D002462
:1043A000F7100024F6100024F9100024F81000245F
:1043B000174B184A1B8810B5174C84B092F800C0F0
:1043C0008DF8043023788DF80B10C1F307218DF898
:1043D000073001338DF80C10092123709F234624E8
:1043E0008DF808300D4B185C50238DF80900002023
:1043F00013708DF80A000A4A0A4882F800C0047057
:1044000001A8094A1370FFF737FC04B010BD00BFC4
:10441000444F0024F6100024100D002488010024CD
:10442000F9100024F8100024F7100024F0B5204EF5
:1044300085B0204D7378204C63F07F03367894F874
:1044400000C08DF804302B781C4F8DF803300133F9
:104450008DF805208DF800602B7010B3184BADF867
:104460000610595C032A19D0052A17D0154B03EB07
:1044700081031B681A4602924720134A0C2182F8D6
:1044800000C0124A1070502252203A7020706846C4
:104490000F4A1360FFF7F0FB05B0F0BD00220023C8
:1044A000E9E70C4B8DF807005B5C8DF80630D9E727
:1044B000040D0024100D0024F6100024F710002431
:1044C000B8010024DC4E0024F9100024F810002468
:1044D0001C4E0024740100242149002210EE100A11
:1044E00030B50B7885B01F4CC0F3072E63F307027D
:1044F00001331D4D0B70030E617895F800C041F03B
:10450000200161F30F22002160F307016EF30F21F8
:1045100094F802E06EF31742C0F3074E68466EF35C
:10452000174163F31F61114BCDF80710E17861F378
:104530001F621978CDF80320227852248DF80020CC
:104540000B4A1C7082F800C00A4A117049220B21E4
:104550002A70094A82ED000AFFF78EFB05B030BDD4
:10456000100D0024040D0024F7100024F610002480
:10457000F9100024F81000241C4E002410B51E4C25
:1045800084B01E4910EE102A237891F800C08DF8EF
:10459000033001338DF8072023709F2300248DF80A
:1045A0000430174B8DF806404A24185CC2F30763A9
:1045B0008DF8050013488DF80A3000888DF800004A
:1045C000114880F800C0114804705024104804704D
:1045D000522410480C70C2F30721C2F3074480ED47
:1045E000000A8DF8081068460B218DF80940FFF786
:1045F00043FB04B010BD00BF100D0024F6100024D2
:1046000074010024444F0024F9100024F810002401
:10461000F71000241C4E0024BA49BB4ABB4B2DE9BD
:10462000F043BB4D1024BB4E2DED028B087885B0B6
:1046300092F800C0287096F800E0187881F800C061
:1046400010701C70BEF1000F6FD1B34CB34FDFF888
:10465000049397F800806768E4783FBAA40808EEEE
:10466000107AC9F80070B8F1000F03D0AC4F3F7852
:10467000002F49D1087004EB4400AA4985F800C016
:1046800001EB80011020D1ED007A10700722B4EE0A
:10469000E78A1A70F1EE10FA3ADBD1ED017AB4EE46
:1046A000E78AF1EE10FA33D89F4DA30005EB8402A0
:1046B000D2ED007AF4EE487AF1EE10FA2AD0122CFC
:1046C0006AD9A200A0462746A30002F580722B44B7
:1046D0004FF47A71954800930423CDE90131022308
:1046E000A0210DF0F3F93378002B40F0EE80904BD1
:1046F0001B7823B18F4BDB5D642B40F0F98005B054
:10470000BDEC028BBDE8F0838B4F3F5D002FB1D134
:10471000854DA3002B44204693ED000A05B0BDEC67
:10472000028BBDE8F043FEF7BDB908700721147095
:104730001970824B824993ED008A0C78774B794A45
:104740001B7804EB440385F800C002EB8303D3ED30
:10475000007AB4EEE78AF1EE10FA13DBD3ED017ABA
:10476000B4EEE78AF1EE10FA0CD86F4DA30005EB1A
:104770008402D2ED007AB4EE678AF1EE10FA9ED18F
:10478000022200E004222146002005B0BDEC028B8D
:10479000BDE8F043FFF74ABE621E0D2A08D8DFE8E5
:1047A00002F08307070707694F351B070707071143
:1047B0002B44A200A046274683ED008A02F58072B2
:1047C000A30084E75F4A1278002A00F0C580BEF19A
:1047D000000F9FD00622D6E7D5ED077AF4EEC87A0F
:1047E000F1EE10FAF3D5584A0927584BD2ED007A6A
:1047F000B84685ED098A68EE277AFCEEE77A17EE6F
:10480000902A5A8024234FF4927260E7D5ED067AFD
:10481000F4EEC87AF1EE10FAD9D54B4A08274B4B83
:10482000D2ED007AB84685ED088A68EE277AFCEE6C
:10483000E77A17EE902A1A8020234FF4907246E709
:10484000D5ED097AF4EEC87AF1EE10FABFDD3E4AF2
:1048500007273F4BD2ED007AB84685ED078A68EE10
:10486000277AFCEEE77A17EE902A5A801C234FF441
:104870008E722CE7D5ED087AF4EEC87AF1EE10FAD4
:10488000A5DD314A0627324BD2ED007AB84685EDD8
:10489000068A68EE277AFCEEE77A17EE902A1A80ED
:1048A00018234FF48C7212E795ED0E0A0127192098
:1048B00085ED018A38EE000AB84685ED190AFEF743
:1048C000F1F804234FF4827201E705EB87072046D5
:1048D00097ED000AFEF7E6F897ED000AFFF7FCFDFA
:1048E000022005B0BDEC028BBDE8F04312F0E8B940
:1048F000B0EE480A404605B0BDEC028BBDE8F0437F
:10490000FFF73CBEF8100024F7100024F610002436
:10491000F9100024000D00245C2C0024DC0C002481
:104920001111002454040024DC4E0024840A0024C5
:10493000E90C002474010024BC0C0024F80C0024B1
:10494000FE0C0024284E0024344E0024384E00244F
:104950003C4E00241C4E00241E4FB7F9061007EEF3
:10496000901AF8EEE77AF4EEC87AF1EE10FA3FF614
:104970002EAFB7F9041007EE901AF8EEE77AF4EECE
:10498000C87AF1EE10FAFFF622AF134B85ED0E8ACE
:104990001A70FDF797F9FEF737F8B7F90430F2EE21
:1049A000006A95ED0E6A07EE903AB6EE007A0B4B70
:1049B0000E27F8EEE77AB846E6EE667A67EE877A73
:1049C000FCEEE77A17EE902A1A8038234FF49C7297
:1049D0007DE600BF444F0024D14E0024FE02002497
:1049E00038B5254B5122254C5D6803F1070C24484E
:1049F000256048245988047053242248B3F808E0FD
:104A00000270214804702148214C0270581E4FF654
:104A1000FF7210F8013F53408445DBB234F8133085
:104A200083EA1222F5D11B4B96451A800BD130290F
:104A30000FD8194B5B5C012B11D005220120BDE87A
:104A40003840FFF7F3BC0122BDE838401046FFF7BD
:104A5000EDBC03220120BDE83840FFF7E7BC0F4C56
:104A60000F4A2370525C0F4B0F491A800D60FFF7FD
:104A7000D3FD0023237038BD040D00241C4E0024F8
:104A8000F9100024F8100024F7100024F610002478
:104A90007C6E0408020D0024EC010024000D0024AB
:104AA000B8010024FE0C0024F80C002430B4104C93
:104AB000104A94F800C0104D104B85F800C092F8D1
:104AC00000C084F800C01C78147040221A7030B9FD
:104AD0000B4B084630BC33F91110FFF769BC094B8A
:104AE000084603EB810330BC93ED000AFFF746BD97
:104AF000F8100024F7100024F9100024F610002408
:104B0000444F0024DC4E0024514B4FF0500C5148D0
:104B100000221B882DE9F04F9FB04F4C8DF81430C8
:104B20004E4B21781B788DF815201B018DF816202F
:104B300043F00F038DF81830494B1F8803788DF828
:104B400019708DF8173001330370464B4648B3F89F
:104B50000080464B01704B2093F80090444983F845
:104B600000C03B0A81F8009020708DF81A30B8F12F
:104B7000000F63D01346039205AA0721DFF800B1A6
:104B8000DFF800A1029211E03A49013331F9122015
:104B9000DBB25FFA8EF105F8642C4345C2F30722BD
:104BA00005F8632C33D281466046A446DA1901F138
:104BB000780401F1020E1AF802600DEB04051BF8EF
:104BC00002205024002EDFD02B4C013304EB820254
:104BD000029CDBB2D2ED007A0C440A1D7831CDED97
:104BE000017A43450DEB0105D1B2019A05F8642C19
:104BF000C2F307256570C2F30745C2F30762A570CB
:104C0000E2704FF001024FF052040392CBD3039BAA
:104C100023B11A4BDDED017AC3ED007A134B1C7002
:104C20000D4B83F800C0104B83F80090104B1870A8
:104C30000298FFF721F81FB0BDE8F08F05AB072100
:104C400002930298FFF718F81FB0BDE8F08F00BF7D
:104C5000444F0024100D0024F7100024DA0C002427
:104C6000140D0024120D0024F9100024F610002465
:104C7000F8100024380D0024180D00241C4E0024C8
:104C800020020024400200241B491C4A1C4838B55D
:104C900091F800C01B4B80F800C010781A4C0870C7
:104CA0005B2118781970107022785AB1174B1B7855
:104CB000D3B9174B1B78D3B90023164D23700023AB
:104CC0002B8038BD144B1B88002BFAD1114D2B883B
:104CD000B3F57A7FF5D30E4B1B78002BEFD0FEF7A0
:104CE0004BFBFFF711FFEAE7FEF76EFFE4E7FEF785
:104CF00043FBFFF709FFDFE7F8100024F71000245B
:104D0000F9100024F6100024541E0024EE0C002498
:104D1000160D0024F00C0024C64E00243349344AFA
:104D2000344B30B5344C8DB00D78864625701478F0
:104D30001D780C7015704D2230491A7000220B78C6
:104D40002F4C8DF81330013324780B7036232D4D02
:104D50008DF810408DF811208DF812208DF8143048
:104D600060B1294C05A92B4605EB000C14F8012F66
:104D700003F8012B634501F8012FF7D10EF105016E
:104D8000002304A8C9B205F80E3085F815E0FEF737
:104D900073FF1C48FBF71CFB642382B219491B48B4
:104DA00011F04AF84FF47A70162102234FF4007282
:104DB0000095CDE90110A02115480CF087FE0A20CE
:104DC00011F07EFFFEF702FE124B1A7822B1124B51
:104DD00001221A700DB030BD012170201970FDF74D
:104DE00069FD0D4B01221A700DB030BDF810002482
:104DF000F7100024F6100024F9100024100D0024F0
:104E0000040D00242C0100249E0C0024940700248F
:104E1000840A0024101100244B0C00241C4A1D4B52
:104E20001D4830B592F802E093F800C000EB0E0187
:104E30001A4D1B4A85F800C00EF1010C4D78897897
:104E4000184C45EA0125117821704C21164C11703F
:104E500051224FF6FF711A700023C25C01334A40A1
:104E6000DBB2D2B29C4534F8122082EA1121F4D888
:104E70000E4B8D42198004D00120BDE83040FEF772
:104E8000D3BFAEF10200BDE83040C0B2FFF746BF6D
:104E9000040D0024F61000249C0C0024F8100024BB
:104EA000F7100024F91000247C6E0408020D002481
:104EB0005E4B5F4A1B885F4970B588B05E4C5F4EA1
:104EC0008DF8043013785E4D8DF80730013394F877
:104ED00000C01370AF230A788DF808305E238DF878
:104EE0000900002848D0012828D0022868D1554A56
:104EF0003370554B10781A88002360F3070362F370
:104F00000F23120A62F31743504A12888DF80F20BC
:104F1000120A8DF810204E4A128862F31F63120A9B
:104F2000CDF80A3050238DF80E200B7023702B70B3
:104F30000D2101A8FEF7A0FE08B070BD424A3370F3
:104F4000502312880B704148110A23702B708DF882
:104F50000C1003883E498DF80B201A0A8DF80F308B
:104F60000B888DF810208DF80D301A0A00238DF86B
:104F70000E208DF80A30DBE72A70542223700A7065
:104F8000344A354B127819788DF8100062F3070017
:104F90005B6861F30F20314CC3F30722C3F3076151
:104FA00063F317402360C3F3074486F800C062F33D
:104FB0001F608DF80F108DF80E40CDF80A00B7E78E
:104FC000274A002312888DF80A308DF81120120A22
:104FD000244B8DF812201B88234A8DF80B301B0AB6
:104FE00012888DF80C308DF81320120A1F4B8DF8A3
:104FF000142050221B682270C3F307200A703270FD
:105000005422164C11218DF80D302A70C3F307423B
:105010002360C3F307638DF80E0001A88DF80F20FD
:105020008DF81030FEF728FE08B070BD444F002404
:10503000100D0024F6100024F7100024F9100024AD
:10504000F810002406110024480C0024460C00240B
:10505000440C00240D1100246C0700241C4E002475
:10506000E0100024E8100024DE100024E4100024E6
:10507000F0B5224C83B0224E4FF6FF72214D2146EF
:10508000377804F1030C95F800E01F4811F8013B54
:1050900053406145DBB230F8133083EA1222F5D178
:1050A0001A4B1A801A4B1F701A4B83F800E05D23CD
:1050B000337051232B70B4F80330934205D0012094
:1050C000FEF7B2FE002003B0F0BD134D68466278D3
:1050D0002B78A17842F0200226788DF80330013336
:1050E0008DF8051006218DF804208DF800602B70D6
:1050F000FEF7C2FD012003B0F0BD00BF040D002487
:10510000F7100024F61000247C6E0408020D002421
:10511000F9100024F8100024100D00246C496D4A89
:105120006D486E4B70B56E4C91F800C01B7884F8DA
:1051300000C092F800C081F800C090F800C0694932
:1051400082F800C04FF0780C03EB830280F800C0B7
:105150006548550010F803E06448B0F900C011F844
:10516000120001EB4202604502D0AA282CD070BD8B
:1051700052789C00133A022A05D85D4A1578032D0F
:1051800050D0022DF3D15B4A127892B3BEF1080FD2
:1051900000F08280BEF1050F5BD0BEF10A0F61D036
:1051A000BEF1030FE3D11C4401EB44046378162BDA
:1051B000DDD1514A5149A4780B70537001235049F5
:1051C000107094700B7070BDBEF1040F31D0BEF141
:1051D000030FCCD15378172BC9D1484D41F2AA7493
:1051E0004549907801222B70454B0C8088701A70CD
:1051F00070BDBEF1050FBAD11C4401EB44046278C6
:10520000192AB4D103EB83033C483B4C027001EBF9
:10521000430251F8130011790122394B20602171AA
:105220001A7070BD02251570324A1278002AADD16D
:10523000DFE75378102B9AD1304802352E4A4C5B69
:10524000037041F2AA002E490123548010800B7094
:1052500070BD1C4401EB440462781A2AD2D0112A92
:10526000CED1CFE71C4401EB44046278152A7FF4C9
:105270007EAF03EB8303214E1F4C51F8130001EB6B
:105280004305327001231F4A696813702D891C4A37
:1052900003C41370258070BD1C4401EB4404647882
:1052A000A4F11202022A3FF662AF03EB8303124A13
:1052B000124E01EB430551F81300114B696834702D
:1052C00003C210490020012208701A7070BD00BF8F
:1052D000F8100024F7100024F6100024D410002445
:1052E000F9100024B40D0024640D0024444F002460
:1052F00071010024E90C0024040D0024620D002437
:10530000F20C0024110D0024B4EEE00AF1EE10FAC4
:10531000B5EEC00A4CBF30EEC07A30EE607AF1EEE6
:1053200010FAF5EEC00A1CD4F1EE10FA1CD4DFED31
:10533000287AF4EE670AF1EE10FA15D0B4EEE00A1E
:10534000F1EE10FA10D5B7EEC77A9FED1F6BB4EEF1
:10535000C67BF1EE10FA07DD1E4B1B785BB901200E
:105360007047F1EE10FA01D400207047B1EE400A08
:10537000F1EE600AE2E718481849194A194B90ED16
:10538000015A91ED016A92ED017AB7EEC55AD3ED5B
:10539000014AB7EEC66AB7EEC77A1349B7EEE44AD8
:1053A000124800B587B053EC142B8DED045B8DEDE6
:1053B000026B8DED007B1CF0EBFB0D4B01220120FD
:1053C0001A7007B05DF804FB9A9999999999A93FC9
:1053D00000409C45241F0024544E00245C4E0024B1
:1053E000280300244C4E0024B84104086400002423
:1053F000684E002400000000B4EEE00AF1EE10FA5E
:10540000B5EEC00A4CBF30EEC07A30EE607AF1EEF5
:1054100010FAF5EEC00A1CD4F1EE10FA1CD4DFED40
:10542000287AF4EE670AF1EE10FA15D0B4EEE00A2D
:10543000F1EE10FA10D5B7EEC77A9FED1F6BB4EE00
:10544000C67BF1EE10FA07DD1E4B1B785BB901201D
:105450007047F1EE10FA01D400207047B1EE400A17
:10546000F1EE600AE2E718481849194A194B90ED25
:10547000005A91ED006A92ED007AB7EEC55AD3ED6D
:10548000004AB7EEC66AB7EEC77A1349B7EEE44AE8
:10549000124800B587B053EC142B8DED045B8DEDF5
:1054A000026B8DED007B1CF073FB0D4B0122012084
:1054B0001A7007B05DF804FB9A9999999999A93FD8
:1054C00000409C45241F0024544E00245C4E0024C0
:1054D000280300244C4E0024FC41040864000024EE
:1054E000684E0024DFED247A2449254AF4EE670A49
:1054F000244B2548F1EE10FA00B591F800C092F85F
:1055000000E080F800C081F800E04FF061011878F9
:10551000197010701FD0B5EEC00AF1EE10FA1FD44A
:10552000F5EEC00AF1EE10FA10D4184B70EEC00A76
:10553000D3ED0B7AF4EEE70AF1EE10FA0BDB144B25
:1055400018780130C0B218705DF804FBB5EEC00ADF
:10555000F1EE10FA0DDD00200D4B18705DF804FB24
:10556000F5EEC00AB1EE400AF1EE10FA01D4F2DC19
:10557000DBE7F1EE600AD8E700409C45F810002414
:10558000F7100024F6100024F9100024DC4E00244B
:105590005B070024DFED247A2449254AF4EE670AEC
:1055A000244B2548F1EE10FA00B591F800C092F8AE
:1055B00000E080F800C081F800E04FF06201187848
:1055C000197010701FD0B5EEC00AF1EE10FA1FD49A
:1055D000F5EEC00AF1EE10FA10D4184B70EEC00AC6
:1055E000D3ED0A7AF4EEE70AF1EE10FA0BDB144B76
:1055F00018780130C0B218705DF804FBB5EEC00A2F
:10560000F1EE10FA0DDD00200D4B18705DF804FB73
:10561000F5EEC00AB1EE400AF1EE10FA01D4F2DC68
:10562000DBE7F1EE600AD8E700409C45F810002463
:10563000F7100024F6100024F9100024DC4E00249A
:105640005A0700246C4A6D4B70B56D4C88B01578C4
:105650006C4E257005461C7814700CB26A4A348072
:105660001078187001EB810365205B0010709BB20D
:10567000002B3FD04EF66022934203D941F2707165
:105680001346318061480268C360D36200235362CD
:105690005F4B1B784BBBADB1002204215D480CF081
:1056A00077F8012208215B480CF072F85A4B1B78FE
:1056B000002B75D133880121584A5B421170338029
:1056C00008B070BD2A46082152480CF061F801224A
:1056D000042150480CF05CF84F4B1B78002B33D161
:1056E0004F4B01221A7008B070BD0EF041FE002D24
:1056F000D2D1E7E7484B1B78002BE1D049484A4913
:105700004A4A4B4B90ED015A91ED016A92ED017AB4
:10571000B7EEC55AD3ED014AB7EEC66AB7EEC77AFF
:105720004449B7EEE44A0694434853EC142B8DEDFC
:10573000045B8DED026B8DED007B1CF029FA3F4B75
:1057400001221A7008B070BD3749364891ED016AE0
:10575000364A3749B7EEC66A394B90ED015A92ED99
:10576000017AD1ED014AB7EEC55A1B78B7EEC77A78
:10577000344AB7EEE44AB6F90040D05C324953EC03
:10578000142BCDE906048DED045B2B488DED026BE7
:105790008DED007B1CF0FCF9284B01221A709FE76D
:1057A0002149204891ED016A204A2149B7EEC66A95
:1057B000234B90ED015A92ED017AD1ED014AB7EEFB
:1057C000C55A1B78B7EEC77A1E4AB7EEE44AB6F957
:1057D0000000D15C53EC142BCDE906108DED045B79
:1057E0001A4915488DED026B8DED007B1CF0D0F948
:1057F000124B01221A705DE7F8100024F710002404
:10580000F9100024E40C0024F610002408090024F8
:105810005011002400140258241F00246111002498
:1058200062110024544E00245C4E002428030024FE
:105830004C4E00244042040864000024684E0024BA
:10584000251F0024040300248C420408D0420408CD
:105850007F4AB5EEC00A7F497F4BF1EE10FA30B5B2
:105860007E4C87B0157848BFF1EE407A91F800E0A1
:1058700058BFF0EE407A93F800C02570632582F897
:1058800000E081F800C01D7078BB754D95ED097A78
:10589000B4EEE77AF1EE10FA54D495ED077AB4EE4F
:1058A000E77AF1EE10FA4DDC95ED037A6D4967EE7B
:1058B000877A6D4B0870B3F91820FCEEE77A17EE83
:1058C000901A89B2914271DCB3F9203091B2002B69
:1058D00075D0B5EEC00AF1EE10FAD4BF0120002059
:1058E00007B0BDE83040FFF7ADBEB0EE007A5D4ACC
:1058F0000023F4EEC77A1370F1EE10FA3ADCF5EEFD
:10590000C00A574B01215848D3ED057AF1EE10FA41
:105910001170B0F9183048BFF1EE600A60EEA70AC6
:10592000FCEEE00A10EE902A91B2994253DDB0F9F4
:1059300014308B4200F38680B0F9202099B2002AFF
:105940003DD1C6E784F800E06720632482F800C0F8
:105950001870002245480C7004210BF019FF00223A
:10596000082142480BF014FF414B1B78002B44D117
:1059700007B030BD3E4B1B78002BF9D03D4B3E4964
:10598000D3ED014A3D4A3E48B7EEE44A91ED016A43
:1059900092ED017A90ED015AB7EEC66AB7EEC77A7A
:1059A0003849B7EEC55A53EC142B3DE0B3F9142037
:1059B000B3F920308A42D8BF91B2002B89D1B5EE1D
:1059C000C00AF1EE10FACCBF0120002007B0BDE8FC
:1059D0003040FFF737BE07EE903AB6EE086BB0F9ED
:1059E0002030B8EEE77B27EE067BBCEEC77B17EED8
:1059F000102A91B2002BE2D16BE71E4B1E491F4AC1
:105A00001F48D3ED014A91ED016A92ED017AB7EE9C
:105A1000E44A90ED015AB7EEC66AB7EEC77A1A4962
:105A2000B7EEC55A53EC142B8DED045B8DED026B74
:105A30008DED007B15481CF0ABF8154B01221A7058
:105A400007B030BDB0F92030002BB8D141E700BF1E
:105A5000F8100024F7100024F6100024F910002498
:105A6000DC4E0024251F0024444F0024001402585B
:105A7000241F00244C4E00245C4E002428030024E4
:105A8000544E0024544304081443040864000024C2
:105A9000684E00242749284A284B29482DE9F0411F
:105AA000284C91F800C0007884F800C092F800C03B
:105AB00081F800C05F2193F800C0197082F800C01F
:105AC00010B1214C23780BB9BDE8F0811F4E204F57
:105AD000D6ED010A97ED010AFFF716FC054628B13D
