:020000040802F0
:1000000000000524C9CA0208BDBF0208D9BF020802
:10001000F5BF020811C002082DC002080000000050
:10002000000000000000000000000000318A03080A
:1000300049C0020800000000C18A0308C565030822
:1000400019CB020819CB020819CB020819CB0208F8
:1000500019CB020819CB020819CB020819CB0208E8
:1000600019CB020819CB020819CB020819CB0208D8
:100070004DC0020819CB020819CB020819CB02089F
:1000800019CB020819CB020859C0020819CB020883
:1000900019CB020819CB020819CB020865C0020867
:1000A00019CB02086DC0020819CB020819CB02084F
:1000B00019CB020879C0020819CB020819CB020833
:1000C00019CB020819CB020819CB020819CB020878
:1000D00019CB020819CB020819CB020819CB020868
:1000E00019CB020819CB02080000000019CB020846
:1000F00019CB020819CB020819CB020819CB020848
:1001000019CB020819CB020819CB020819CB020837
:1001100085C0020819CB020819CB020891C0020859
:1001200019CB020819CB020819CB020819CB020817
:1001300019CB02089DC0020819CB020819CB02088E
:1001400000000000000000000000000000000000AF
:1001500019CB020819CB020819CB020819CB0208E7
:1001600019CB020819CB020819CB020819CB0208D7
:1001700019CB020819CB020819CB020800000000B5
:1001800019CB020819CB020819CB020819CB0208B7
:1001900019CB020819CB020819CB020819CB0208A7
:1001A00019CB020819CB020819CB02080000000085
:1001B00019CB020819CB020819CB020819CB020887
:1001C00019CB020819CB0208000000000000000053
:1001D000000000000000000019CB02080000000031
:1001E000000000000000000000000000000000000F
:1001F000000000000000000019CB020819CB020823
:1002000019CB020819CB02080000000019CB020824
:10021000A9C00208B5C0020819CB020819CB020810
:1002200019CB02080000000019CB020800000000F2
:1002300019CB020819CB02080000000019CB0208F4
:1002400019CB020819CB020819CB020819CB0208F6
:1002500019CB020819CB020819CB020819CB0208E6
:1002600019CB020819CB020819CB020819CB0208D6
:1002700019CB020819CB020819CB020800000000B4
:1002800019CB020819CB020819CB020819CB0208B6
:100290000000000019CB020819CB02080000000082
:1002A0000000000019CB020819CB020819CB020884
:1002B00019CB020819CB020819CB020819CB020886
:0C02C00019CB020819CB020819CB020868
:1002D00010B5054C237833B9044B13B10448AFF380
:1002E00000800123237010BD3007002400000000AF
:1002F000D436040808B5034B1BB103490348AFF3D8
:10030000008008BD0000000034070024D436040833
:1003100010F8012B11F8013B012A28BF9A42F7D0AF
:10032000D01A70470000000000000000000000002C
:1003300001F0FF01102A2BDB10F0070F08D010F896
:10034000013B013A8B422DD010F0070F42B3F6D19A
:10035000F0B441EA012141EA014122F007047FF0B3
:1003600000070023F0E80256083C85EA010586EA0A
:10037000010685FA47F5A3FA87F586FA47F6A5FA46
:1003800087F68EB9EED1F0BC01F0FF0102F0070252
:1003900032B110F8013B013A83EA010313B1F8D1FD
:1003A0000020704701387047002D06BF35460338DE
:1003B000073815F0010F07D1013015F4807F02BF17
:1003C000013015F4C03F0130F0BC0138704700BF68
:1003D000034613F8012B002AFBD1181A0138704785
:1003E00053B94AB9002908BF00281CBF4FF0FF319C
:1003F0004FF0FF3000F088B9ADF1080C6DE904CE84
:1004000000F006F8DDF804E0DDE9022304B07047EF
:100410002DE9F047089D8E4604468846002B4AD1B8
:100420008A42174662D9B2FA82F64EB1C6F120036B
:1004300001FA06F820FA03F3B74043EA0808B4408B
:100440004FEA174E1FFA87FCB8FBFEF1230C0EFB98
:10045000118843EA084301FB0CF29A4209D9FB18C0
:1004600001F1FF3080F0EA809A4240F2E7800239E1
:100470003B449A1AA3B2B2FBFEF00EFB102243EAF1
:10048000024300FB0CFC9C4509D9FB1800F1FF322C
:1004900080F0D6809C4540F2D3803B44023840EA4D
:1004A0000140A3EB0C0300211DB1F3400022C5E97C
:1004B0000032BDE8F0878B4205D90DB1C5E90001D6
:1004C00000210846F5E7B3FA83F1002946D17345C8
:1004D00002D3824200F20581841A6EEB03020120EE
:1004E0009046002DE5D0C5E90048E2E7002A00F07B
:1004F0009080B2FA82F6002E40F0A4808A1A030C93
:100500004FEA174E80B2BCB20121B2FBFEFC0EFBDB
:100510001C2243EA024304FB0CF29A4207D9FB185F
:100520000CF1FF3802D29A4200F2E080C4469B1AD6
:10053000B3FBFEF20EFB123340EA034302FB04F46A
:100540009C4207D9FB1802F1FF3002D29C4200F214
:10055000CA8002461B1B42EA0C40A5E7C1F12006F7
:100560008B4022FA06F71F430EFA01F420FA06F335
:100570002EFA06FE4FEA1749234300FA01F81FFA44
:1005800087FCBEFBF9F01C0C09FB10EE44EA0E449C
:1005900000FB0CFEA64502FA01F209D93C1900F154
:1005A000FF3A80F09C80A64540F2998002383C4496
:1005B000A4EB0E041FFA83FEB4FBF9F309FB13440A
:1005C0004EEA044403FB0CFCA44508D93C1903F192
:1005D000FF3E80F08280A4457FD9023B3C4443EA41
:1005E0000040A4EB0C04A0FB02EC64457346E1461A
:1005F00062D35FD05DB1B8EB030264EB090404FA87
:1006000006F622FA01F31E43CC40C5E9006400213E
:100610004FE7B1FBF2FC010C41EA0E4180B240EA27
:1006200001423B4638463C46B846BE462026B1FB12
:10063000F7F1A2EB080241EA0C4166E7014618E730
:1006400010462CE7C6F120022EFA02F3B740B14063
:1006500020FA02F24FEA174E0A43B3FBFEF8BCB28F
:100660000EFB1833110C41EA034108FB04F9B040BA
:1006700089454FEA104380B23ED9791808F1FF3C12
:1006800001D289451FD8A1EB0901B1FBFEF909FB95
:1006900004F80EFB191192B242EA0142424529D2F6
:1006A000BA1809F1FF31C4D24245C2D2A9F1020100
:1006B0003A44BEE7F0459DD2BEEB02036CEB070C5B
:1006C0000138E14696E7A7EB09094944A8F1020C75
:1006D000B1FBFEF909FB04F8DBE773467FE7504600
:1006E00066E70846FDE63B44023A33E7ACF1020C0C
:1006F0003B441CE749469CE7A1EB0901C446B1FB1A
:10070000FEF909FB04F8C4E7704700BF024B4FF441
:100710008E025A61704700BF0020005230B5044677
:1007200089B00D4610F0FAFA04F178433D4A4FF4CF
:100730008E00B3F5003F506139D200202021002205
:1007400001230691CDE90405CDE90223BFF34F8FC4
:10075000BFF36F8F344C0022636923F4003363616D
:10076000C4F85022BFF34F8FBFF36F8F01A902A8C7
:1007700010F06AFB00283CD1636913F4003311D1F7
:10078000BFF34F8FBFF36F8FC4F85032BFF34F8F5B
:10079000BFF36F8F636943F400336361BFF34F8F1F
:1007A000BFF36F8F10F0CEFA002009B030BD1F4BA1
:1007B0002344B3F5003F01D20120BFE71C4B234483
:1007C000B3F5003F18D31B4B2344B3F5003F15D3BB
:1007D000194B2344B3F5003F14D3184B2344B3F50E
:1007E000003F0DD3164B2344B3F5003F0CD2062037
:1007F000A4E7012009B030BD02209FE703209DE758
:1008000005209BE7042099E70723202200200121EF
:100810000692CDE904350B4B9C42CDE90201C1D8CB
:1008200094E700BF0020005200ED00E00000FEF75A
:100830000000FCF70000FAF70000F8F70000F6F7F8
:100840000000F4F7FEFF0F082DE9F04105460E46C3
:10085000174610F063FABFF34F8FBFF36F8F224B31
:1008600000245A6922F400325A61C3F85042BFF39F
:100870004F8FBFF36F8FC7B1DFF8708008E02A6831
:10088000203556F8243008349A422AD1A7420CD990
:1008900045450AD806EB84022946012010F094FA57
:1008A0000028ECD00320BDE8F0810F4A536913F40F
:1008B000003311D1BFF34F8FBFF36F8FC2F85032A7
:1008C000BFF34F8FBFF36F8F536943F4003353610E
:1008D000BFF34F8FBFF36F8F10F034FA0020BDE8E5
:1008E000F0810220BDE8F08100ED00E0DFFF0F089D
:1008F00000BE7047BFF34F8F0549064BCA6802F42C
:10090000E0621343CB60BFF34F8F00BFFDE700BF32
:1009100000ED00E00400FA0570B5244C237843B1E3
:10092000234B1B782BB30221224A00231170237022
:1009300070BD214D214C29782378994211D01C4A51
:10094000127802B31B4A02201D4E10705A1CD2B2FC
:10095000502A15D01046207091424FF00000F054FC
:10096000E6D100231749184A2B7023700B701370BF
:1009700070BD16490D22164813F0EAFF0121D3E796
:1009800000200246E7E703EB83010D4E1048F25CBE
:1009900001EB81010F4B03EB810113F0D9FF054BF4
:1009A000012229781A702378D0E700BFFC4D00247B
:1009B0003E110024E84B0024EA4B0024E94B0024BC
:1009C000582C00248A1F0024891F002418030024A7
:1009D00020080024A82C0024F0B5202785B0174E4D
:1009E0004FF47A75164C02230022A0210094304661
:1009F000CDE9017510F08EFD0A2015F085FEE31992
:100A00003A46A0210093304602234034CDE90175D7
:100A100010F080FD0A2015F077FE1A2202233046DE
:100A2000A0210094CDE90125402210F073FD0A2099
:100A300005B0BDE8F04015F067BE00BF7C0A002499
:100A40003C4F0024F0B5194E85B04FF47A7520273D
:100A5000174C02234FF48072A02100943046CDE958
:100A6000017510F057FD0A2015F04EFEE3194FF402
:100A70009072A0210093304602234034CDE90175E5
:100A800010F048FD0A2015F03FFE0C2202233046EC
:100A9000A0210094CDE901254FF4A07210F03AFD99
:100AA0000A2005B0BDE8F04015F02EBE7C0A0024F7
:100AB000D44E002410B54FF47A7084B01621084C3F
:100AC00002234FF400720094CDE90110A0210548E3
:100AD00010F020FD0A2004B0BDE8104015F014BE4F
:100AE0002C0100247C0A002430B50C4685B0114648
:100AF0004FF47A750246022300940448CDE90115AB
:100B0000A02110F007FD05B030BD00BF7C0A002415
:100B100030B50C4685B091B24FF47A750246022387
:100B200000940548CDE90115A02110F0F3FCB0FABE
:100B300080F0400905B030BD7C0A002430B50C4679
:100B400085B091B24FF47A750246022300940548AD
:100B5000CDE90115A02110F0E1FDB0FA80F04009C7
:100B600005B030BD7C0A00242DE9F84F164F4FF038
:100B70000508164D164E174C3B7895F800B02046E8
:100B800096F80090DFF854A087F800B08AF800309B
:100B900085F8009086F80080FFF71AFC637DC0B2EC
:100BA00083420ED00C4B04228AF800B087F80090E4
:100BB000327085F8008093E80300072384E803007F
:100BC0006375BDE8F88F00BFE8100024E71000242B
:100BD000E61000242C01002420370408E91000242A
:100BE0001448154B1549164A10B4164C90F800C01D
:100BF00084F800C093F800C080F800C0082091F885
:100C000000C0087083F800C002F1580C0E4B32F996
:100C1000021FB3F90000884203DCB3F902008842E6
:100C200001DA99881180624503F10603EFD15DF87E
:100C3000044B7047E8100024E7100024E61000245D
:100C40003A4F0024E91000243C0300241848194BB3
:100C500019491A4A10B41A4C90F800C084F800C020
:100C600093F800C080F800C04FF0090C087881F8B4
:100C700000C0187002F14C00124BF2EC017A93EDB7
:100C8000007AF4EEC77AF1EE10FA06D493ED017A09
:100C9000F4EEC77AF1EE10FA02DD996842F8041C0E
:100CA000824203F10C03E8D15DF8044B704700BFAA
:100CB000E8100024E7100024E6100024D44E00249D
:100CC000E91000244C04002410B50446FFF780FB13
:100CD000024664232146034892B2BDE8104014F056
:100CE000CFBD00BF8C0700242DE9F04F934C91B08D
:100CF00023782BB9012015F007FD2378002BF9D0BC
:100D00008F4B1A78002A00F0FD82DFF8A4A20021A0
:100D10008C4B46F2A8170C46DFF898B293F8009077
:100D20009AF800805FFA89F90B915FFA88F80991C7
:100D30000D9106910A910C91CDE907119BF8005095
:100D4000002D3DD0069BCBB915F07CFB0BF034FC9D
:100D5000064615F0F5FB7B4932467B480B787B490C
:100D600020F036FC7848FFF733FB642382B27649E3
:100D7000774814F085FD774A069B13700134A4B2BE
:100D8000B4F57A7F00F086819AF80030002B00F0ED
:100D90003982714B1B78002B00F069816D4B1B78F9
:100DA000002B40F06E816D4B1B78002B40F0AF8222
:100DB000012015F0A9FC9BF80030002BDED1069530
:100DC000674D2B78002B40F0418101345D4BA4B27C
:100DD0001E789AF80050B4F57A7FF6B2EDB200F0C2
:100DE000EB80002E00F0FE80079B01339BB2312B7D
:100DF000079300F28380B9F1000F40F08F806423E5
:100E00000E225849524814F03BFD574B574A1B7865
:100E100057490493574B4C481B780393564B1B7808
:100E20000293564B1B780193554B1B780093554BFF
:100E300012781B7820F0CCFB4348FFF7C9FA6423F3
:100E400082B24149424814F01BFD002240214E4825
:100E500010F0C2F9002280214B4810F0BDF90023A8
:100E60004A4A09931380A84532D0002D5AD1484AE6
:100E7000138801331380089B002B00F00481642346
:100E80000D224449324814F0FBFC15F0DBFA0BF05C
:100E900093FB804615F054FB2A4B42463E491B7893
:100EA000294820F095FB2848FFF792FA642382B284
:100EB0002549274814F0E4FC16B1384B01221A707A
:100EC000002308930120A846B14615F01DFC35E724
:100ED000012EF7D0002DF5D0013747F22F53BFB2C6
:100EE0009F42EFD92E4B2F4F1B78002B40F0F28002
:100EF0003A78002A00F0EE801F46E3E72A4B0EA95D
:100F0000186800231A4615F0CBFD002800F05E811A
:100F100000230793B9F1000F3FF471AFA845D1D07A
:100F2000002DA4D046F2A917642311221F49BF1B2C
:100F3000074814F0A5FCBFB2C4E700BFD10C0024E1
:100F400070070024D40C0024000000246838040832
:100F50008C070024720700247807002473070024FC
:100F600079070024A0370408E4100024EA100024C4
:100F700058370408E5100024E6100024E710002488
:100F8000E8100024E910002400140258060D002483
:100F90003E0C0024C4370408D4370408F61000249B
:100FA00001110024420C002480070024B0370408FB
:100FB000B20C0024470C00240221944810F010F9D0
:100FC0000BF084FE924B1860002E40F0CB80914BCA
:100FD0001A7832B10B9A0132D2B2022A0B9200F285
:100FE0000D813446B9F1000F3FF43DAF6423112267
:100FF00089498A4814F044FC894B8A4A1B788A49FB
:1010000004938A4B8A481B788A4F03938A4B1B7838
:1010100002938A4B1B780193894B1B780093894B71
:1010200012781B7820F0D4FA8148FFF7D1F96423B5
:1010300082B27F49794814F023FC834A00233B7035
:1010400046F2A817138801331380FEE67848FFF7AD
:10105000BFF9642382B27649704814F011FC002372
:101060002B70B2E69AF80030002B00F0CB800BF02A
:1010700069FB012015F048FB744B1B78002B3FF4F3
:1010800092AEFFF737FC642329227149634814F0BC
:10109000F7FB15E702215D4810F0A2F80BF016FEF1
:1010A0000A9B0133DBB21A460A93594B1D2A18607A
:1010B00000F2A880674B1C78002CD3D0664B1C78BC
:1010C000002C00F01C819AF80030002B00F09A8070
:1010D000002463E6089B002B63D164230A225F4946
:1010E0004E4814F0CDFB15F0ADF90BF007F9804632
:1010F00015F026FA5A4942464D4820F069FA4C4804
:10110000FFF766F9642382B24949444814F0B8FBFA
:10111000434B444A1B7844490493444B44481B784E
:101120000393454B1B780293444B1B780193444B2C
:101130001B780093434B12781B7820F049FA3C4807
:10114000FFF746F9642382B23949344814F098FB1A
:10115000B8FA88F32F4A5B09089301233B700027F4
:101160001370AFE60C9B002B3FD13E4B1B783E4CDF
:101170000D9A0C932388934200F0808000220992FC
:1011800024490A7802F0FF046AB30B9A0D930132E6
:10119000D2B2022A0B922FD900231C460B700B935C
:1011A00022E63248FFF790FD15F04CF90BF004FAF7
:1011B000804615F0C5F92E4B42462E491B781C4837
:1011C00020F006FA1A48FFF77FFD86E70E9B198884
:1011D00058680BF04DF80E9B586817F091FD0E986B
:1011E00017F08EFD94E60D93FEE51E4B1A78002A4B
:1011F000BCD121490A70B9E70024F5E534461E70D8
:101200000B96EFE60BF088FAFFF774FB001002581C
:101210006C070024D30C00248C3704088C070024AE
:10122000E4100024EA10002458370408E5100024D4
:1012300000000024420C0024E6100024E7100024E3
:10124000E8100024E9100024400C00247207002458
:10125000F837040878070024710700244838040888
:1012600054380408FA100024060D00242837040816
:10127000D40C002424380408F6100024099A013202
:10128000D2B2132A09927FF67BAF3048FFF71CFDDC
:1012900015F0D8F80BF090F9089015F051F92C4B97
:1012A000089A1B782B492C4820F092F92A48FFF71E
:1012B0000BFD2A4B2A4A1B782A4904932A4B2648BD
:1012C0001B780393294B1B780293294B1B780193BE
:1012D000284B1B780093284B12781B7820F078F964
:1012E0001D48FFF7F1FC2549254A0220238810708C
:1012F0000A8801320A800022CDE9082240E70BF07B
:10130000F5FA41E501221A7014F022FDFDE41D4CAE
:101310001D48216820F0ECF8236801211B480F9339
:10132000FFF7FCF930B10023194A1A48137020F076
:1013300047F9A6E601220FA91448FFF785FA00280D
:10134000F1D0154820F03CF9EDE700BF283704083C
:10135000D40C00243437040800000024E4100024D6
:10136000EA10002458370408E5100024E610002491
:10137000E7100024E8100024E91000243C0C0024AD
:10138000F6100024740700249C38040800000E089E
:1013900073070024E8380408B4380408F0B5164E82
:1013A00083B0164D33782A78154C164F32703B7047
:1013B0002278154B2A7014221B782270CBB9134A5D
:1013C000322301A98DF8060012681148ADF80420F7
:1013D000032214F055FA3378217801223B702B78E0
:1013E0002270042233700A2329700948094914F035
:1013F00047FA03B0F0BD00BFE8100024E710002456
:10140000E6100024E91000243E11002404390408E9
:1014100020080024140300242DE9F0415D4C102520
:101420005D4920680E785D4A05625D481578067052
:10143000DFF890815B4898F80030057017205A4F0C
:10144000087032213B7083F001032046117088F848
:101450000030B4F85E50B4F85C6013F0D5FA98F838
:1014600000102046514CFF22C1EB0121214414F011
:101470009BFB3A78C2EB0223E15C2344AA2901D00A
:10148000BDE8F081ADB25B78761B302BB6B25FD091
:10149000723BD9B20729F3D81002072BF0D801A16B
:1014A00051F823F03F150208811402088114020844
:1014B0008114020881140208F9140208E7140208D2
:1014C000C5140208092EDBD1801A7921384A851CFF
:1014D000204411700121374B645B0079364A1C802F
:1014E00098701170CCE7092ECAD131497820324B5F
:1014F000012208701A70C3E7801A2044C378082BB1
:101500002FD00E2EBCD1022BBAD129497724294BDA
:1015100001220C700221847859701C700479417981
:101520009C708479D9701C71C179047A407A5971A0
:101530009C712249D871204B0A701A70A0E70A2EBC
:101540009ED11B4972201C4B012208701A7097E72C
:101550001B4B1A78012A93D0172E91D101221A70B1
:101560008EE70C2E8CD1134A7724114953700379DE
:1015700085780C7093704179C37984790020D1709B
:1015800053711570147101220C490B4B08701A70BD
:1015900076E700BF20080024E7100024E6100024AE
:1015A000E9100024E8100024EF4B0024F44B002441
:1015B000562C00244C2C0024472C0024462C0024BC
:1015C000432C0024F04B00242DE9F04FDFF8188164
:1015D0008DB03C4F1621DFF814B198F800203B780D
:1015E000DFF80CA1DFF80C91374E15208BF80020A6
:1015F00043F2AA028AF8003088F80010322301A9C9
:101600003870ADF80420022230480A2414F038F96A
:101610009AF8002098F8003001218BF800203A78E1
:101620008AF800300A23397088F8002004222849FB
:10163000264814F025F9B9F80030264D0133A9F8F1
:101640000030EB69DB0603D5FFF7E6FE337833B9EC
:10165000013C642015F058F814F0FF04F1D1B9F8FA
:10166000002002A81C491FF0B3FF02A8FEF7B0FE3D
:10167000642382B202A9194814F002F93378F3B94D
:10168000B9F800300E2B05D89AF8002098F80030F1
:101690003978AAE7124D02AC0FCD0FC495E80700C8
:1016A00003C402A82270FEF793FE0246642302A937
:1016B00092B20A4814F0E4F80A4B01221A700DB0F5
:1016C000BDE8F08FE6100024432C002420080024FD
:1016D00014030024004C0040083904088C0700243F
:1016E000243904083E110024E7100024E9100024E6
:1016F000E8100024144E00248C488D4A8D4B8E49EE
:1017000070B404781C7014788C4B0470182408781A
:101710001B78107000208A4A0C70108013B10121D0
:101720000B4611808749097811B143F002031380F9
:101730008549087820B143F0040300201380087025
:101740008249087820B143F0080300201380087014
:101750007F49087820B143F01003002013800870FF
:101760007C49087820B143F02003002013800870E2
:101770007949097811B143F08003138077490978DA
:1017800011B143F4007313807549764809780478E1
:101790004C2900F0A88024B143F480530024138026
:1017A0000470522902D143F4005313806E49087823
:1017B00020B143F480430020138008706B496C48CB
:1017C0000978038011B143F040011180694909781B
:1017D00019B1118841F4807111806749097811B1FC
:1017E00043F480730380654B654C1B68654913F0B7
:1017F0001003247809883DD0038801258C4243F4E6
:1018000080630380604B1D702FD0604B1B78002BD2
:101810002BD15F4C00235F4924780B80002C32D001
:1018200003885D4E5D4D334303802878431C0128B7
:10183000DBB22FD9042B5A4A28BF00232B70137810
:10184000002B2FD0574A012312780B801AB140F297
:10185000011213460A80544A1278002A58D043F4E1
:10186000007301209BB20B801DE0138843F480635A
:101870001380CEE7444D8C422B70CAD0434B1B786B
:10188000002BC6D0F1E723464849494A0C70138023
:1018900070BC704710882B7030431080404A13781A
:1018A000002BCFD11846434A1578434A12780AB321
:1018B00043F00202414E013092B236780A8026B1DE
:1018C00040F202421A4392B20A803D4B1B7813B198
:1018D00042F400620A803B4B1B78DBB10DBB42F443
:1018E00080530B800CE07CB143F4C0530021138083
:1018F00001705BE735B143F0080301309BB20B8008
:101900000228C1D00024BFE743F4006313804DE7F1
:101910000120C8E71DB142F008030B80B4E713466D
:10192000EEE741F2080313430B80ADE7E810002413
:10193000E7100024E9100024E61000241A4E0024C9
:101940002C2C0024194E002454110024531100247F
:101950005211002451110024C94E00240003002418
:1019600012030024174E0024164E0024D40C002429
:101970002A2C0024B20C0024001100240004004092
:10198000D04E00242C030024480C0024D30C002447
:10199000422C00244E1F00240080FFFF161F00244D
:1019A000074E0024064E0024054E0024282C002457
:1019B0004C1F0024ED100024044E0024124E00247D
:1019C000114E0024104E002430B4124B124D134916
:1019D00095F800C0098812481B8880F800C05B1A7F
:1019E000104C0021104894F800C001800F4A1048A4
:1019F000127885F800C0057893FBF2F225701E245A
:101A000004700C4802800C480C4A0380118030BCE2
:101A1000704700BFBC4E0024E8100024B04E0024E4
:101A2000E9100024E7100024684E0024944E00249E
:101A3000E6100024664E0024624E0024644E00240A
:101A40002D492E4A2E4838B52E4C91F800C02E4B09
:101A500084F800C092F800C0007881F800C01D2111
:101A600093F800C0197082F800C0002837D1274BC6
:101A7000274A93ED007AD3ED017A2649B4EEE77A4E
:101A8000254C09881288F1EE10FA2378A2EB0102A6
:101A9000224C234DB4BF0121002192FBF3F334F813
:101AA00011C092B21F4C9BB235F81110B4F93040FE
:101AB0004CB91D4803801D4B1D48A3F800C01D4BA9
:101AC0000280198038BD521A1949A3EB0C03194C36
:101AD0000A801649144A20800880138038BDFFF719
:101AE00073FF154C002315481549164A23600360FF
:101AF0000B60136038BD00BFE8100024E71000241D
:101B0000F91E0024E9100024E6100024F44D0024FE
:101B1000BC4E0024B04E0024944E0024A84E002455
:101B2000AC4E00243C4F0024664E0024684E002436
:101B3000624E0024644E0024844E0024744E00241F
:101B40006C4E00247C4E002470B41249124E134A8D
:101B500008883478124D1278124995F800C00C703C
:101B600012FB00F1104C114B89B286F800C01B88A3
:101B700026780B442E7020259BB225700C4CB3FBAD
:101B8000F2F220800B480C4C03800C4B21801A8011
:101B900070BC70478C4E0024E8100024944E002442
:101BA000E7100024E9100024E6100024B04E0024C1
:101BB000844E00246C4E0024744E00247C4E00247D
:101BC00070B41249124E134A48883478124D127874
:101BD000124995F800C00C7012FB00F1104C114B2B
:101BE00089B286F800C01B8826780B442E70212508
:101BF0009BB225700C4CB3FBF2F260800B480C4C8E
:101C000043800C4B61805A8070BC70478C4E00241E
:101C1000E8100024944E0024E7100024E91000246A
:101C2000E6100024B04E0024844E00246C4E0024A4
:101C3000744E00247C4E002430B51549154C164ACC
:101C4000B1F804E020781178144A154B107011FB9C
:101C50000EF21B8892B21348134405789BB225708C
:101C6000B3FBF1FC10490C780470222008700F4976
:101C7000A1F804E00E498A800E4A0F4993800F4A6A
:101C80000F4BA2F836E00122A1F804C01A7030BD53
:101C90008C4E0024E8100024944E0024E910002407
:101CA000B04E0024E7100024E6100024844E0024E7
:101CB000744E00246C4E00247C4E00243C4F0024C3
:101CC000A10200242DE9F843724E73493378734F13
:101CD000DFED734A3B70B1F90430724A07EE103AF7
:101CE000B1F90630704DB8EEC77A92ED065AD2EDD2
:101CF000075A6E4CC4EE877A92ED086A94F800C0D9
:101D00006B48D2ED096ADFF8C08187EE244A07EEFE
:101D1000103A2B7885F800C03370B8EEC77A27EEFA
:101D2000277A27EE855A67EEA55ABCEEC77ABCEE35
:101D3000C55A27EE866A17EE103AFCEEE55A15EE04
:101D4000109A67EEA66A9BB2BCEEC66AA0FB03CEF1
:101D5000DFF878C1FCEEE66AACF8009015EE909AD8
:101D60004FEADE0EACF8029016EE109ADFF860C172
:101D7000ACF8009016EE909AACF802904FF01C0C64
:101D800044F6206984F800C0DFF848C18CED004AB1
:101D9000DFF844C1CCED007ADFF840C1ACF8009028
:101DA0004FF01909DFF838C18CF80090DFF834C122
:101DB000ACF800303F4BA3F800E098F80030002B5F
:101DC00049D1D2ED0E5AB1F90030B1F90A20B1F97A
:101DD00030C09A1A06EE902AB1F90C20F8EEE66AA5
:101DE0009B1A07EE103A66EEA56AB8EEC77A27EEA0
:101DF000A66A27EE257ABDEEC66A67EE877A16EEEA
:101E0000103AFDEEE77A19B22B4BC3ED006A83ED71
:101E1000017A17EE903A80FB012E1BB280FB032063
:101E2000CA17C2EBEE024FEAE37ECEEBE000DFF82A
:101E3000B8E0AEF80010AEF802302049204B1A800E
:101E400092B2588080B28B88BCF1000F17D19A1AD9
:101E50001B1A0A804B80FFF7F3FD327821783A7025
:101E60002A7898F8003032701F22297022705BB1F6
:101E7000FFF7E2FE134B01221A70BDE8F8831A4403
:101E800003440A804B80E6E7FFF75EFEFFF798FE0B
:101E9000EEE700BFE81000243C4F0024E9100024C6
:101EA00000409C46D44E0024E7100024E610002495
:101EB0001F85EB51B24E0024F44D00248C4E0024BB
:101EC000A84E00245E4E0024F91E00242C4E00244F
:101ED000284E0024204E0024244E0024BC4E002412
:101EE000944E0024B04E0024AC4E0024344BB3F981
:101EF0001C2010B572B1334B00223349188831F8D9
:101F0000023F0533984257DD0132072AF7D14FF0DF
:101F1000090C01E0B3F810C02C492D4AB1F9023088
:101F2000A2F802C013B92B4A00201060B4EEE00AF8
:101F3000294C2A48D4ED107AF1EE10FA4CBF30EE5D
:101F4000C00A30EE600AF4EEC07AF1EE10FA05D560
:101F500002780132D2B2022A027023D91D4A01331B
:101F60004FF0000ED2ED007A1BB280F800E070EE68
:101F7000A70A63454B80C2ED000A13DB07EE903AD7
:101F8000A1F802E00021164BF8EEE77A154811603F
:101F90000121154A80EEA77A11701A788A4280EDE5
:101FA000017A00D010BDD4ED017A022277EEC77A13
:101FB0001A70C4ED017A10BD0C4B33F812C0ABE7B8
:101FC0003C4F0024BE4E0024CE020024304E00249C
:101FD000FC1E002460070024D44E00245C0700246B
:101FE00044110024444E00245D4E0024C00200240D
:101FF000344BB3F91A2010B572B1334B0022334978
:10200000188831F8023F0533984257DD0132072A1C
:10201000F7D14FF0090C01E0B3F80EC02C492D4A5E
:10202000B1F90030A2F800C013B92B4A00201060AB
:10203000B4EEE00A294C2A48D4ED0F7AF1EE10FAFA
:102040004CBF30EEC00A30EE600AF4EEC07AF1EE1A
:1020500010FA05D502780132D2B2022A027023D9D1
:102060001D4A01334FF0000ED2ED007A1BB280F80A
:1020700000E070EEA70A63450B80C2ED000A13DB97
:1020800007EE903AA1F800E00021164BF8EEE77A4F
:10209000154811600121154A80EEA77A11701A784F
:1020A0008A4280ED007A00D010BDD4ED007A022281
:1020B00077EEC77A1A70C4ED007A10BD0C4B33F876
:1020C00012C0ABE73C4F0024BE4E0024EE020024B9
:1020D000304E0024FC1E002458070024D44E002457
:1020E0005407002445110024444E00245C4E002473
:1020F000E0020024604A70B5107882B05F4DB5F9F7
:102100002E10B5F93230F8B1002900F092805C4C05
:102110000433B5F9041054F823305A4E03FB01F18F
:10212000594B07EE901AD3ED006AB8EE677AF8EED5
:10213000666AC7EE267A554BC3ED007A002313700A
:102140000122534B1A7036E0524A534892ED010A6D
:1021500080ED010A00295DD0494C0433B5F9041023
:1021600054F82330474E03FB01F1474B07EE901A1A
:10217000D3ED006AB8EE677AF8EE666AC7EE267AA3
:10218000424BD3ED000A454B70EEE70AD3ED017ADE
:1021900070EEA70AC2ED010AFFF7A8FE404BD3ED8F
:1021A000017A404BF5EEC07AF1EE10FA48BFF1EE3D
:1021B000677AC3ED017A3C4A3C4B12781B889A42FD
:1021C0000CBF344B364B5A68394B5A60394B1B782D
:1021D000C3B1394B1B78ABB9B5F92E30002B37D0D2
:1021E0002949364A0968126863693548CDE90021F2
:1021F000344922691FF0ECF9254B1B787BBB324B2D
:1022000001221A700023314AB3601370C4E9043309
:1022100002B070BD1B4E04332D4936F8133091EDDA
:10222000007A07EE903A164CF8EEE77A67EE877A76
:10223000A6E7144E0433264936F8133091ED007AA0
:1022400007EE903A0E4CF8EEE77A67EE877A72E77F
:10225000738932891F491A481FF0BAF9CCE7184D23
:102260002846FEF7B5F81C4A034641191068E850A5
:1022700093888B80C3E700BFF81E00243C4F0024E6
:10228000641F00247C1F00240C1F0024F41E002463
:10229000F01E0024544E00244C4E0024D44E002442
:1022A000444E0024344E0024D04E00242C0300243D
:1022B000C04E0024141F0024194E0024101F0024B7
:1022C000640000244C390408604E00245E1F002482
:1022D000204E0024403904086C390408824AB0F5C5
:1022E000807F824B2DE9F04F814C4FF00105127831
:1022F00083B025701A7004D00223237003B0BDE8A8
:10230000F08F7C4B00227C4E1A7032687B48536AF7
:102310007B499BB2D76A7B4A0B8011881380026885
:10232000DFF850822A4402606A1A77481A443A4415
:10233000764FA8F80020764A1380764B19804FF428
:1023400080610EF04DFF3B7813BB734A1360734AF4
:102350001360734B1B78002B40F0B780DFF81892A6
:102360000123704D3B702B7833B96F4B1B781BB139
:102370006E4B1B78002B3CD16D4F3B78002B39D135
:1023800099F80030002BB7D06A4ADFF8F0B155E079
:10239000B8F8003044F62062934200F0938066491A
:1023A000664809780078DFF8D09101436DD0644920
:1023B00000230B705D4B1A78002AD1D15748DFF803
:1023C00058C101685F4D21B1DCF80020B2FBF1F289
:1023D0002A60534A1278002A7BD02A88002505609B
:1023E0005948CCF80050016058490A8001221A70FF
:1023F000B6E74F4F564B4FF0010A4E4A4FF00008D8
:1024000083F800A0534B3168C3F810801388DFF8BD
:102410006CB1013B38480192CB62F3609BF800300D
:10242000C1F82480CB63082111F024FD324811F05B
:10243000C3FC019A85F800A087F80080464B002174
:1024400012881B8907EE903A444BF8EEE77A93ED39
:10245000007A404B67EE877A19619BF8000089F893
:102460000010FCEEE77A17EE903A12FA83F3326826
:10247000013B5162D063F360D3620122384B1A7082
:102480000223237003B0BDE8F08F99F800100029F3
:102490008DD133490978002989D129490878002844
:1024A00086D13048057049F65700834213D99B1AEC
:1024B0009BB2A8F800302C4A2C48038013680133E3
:1024C000136075E7DFF8B09074E7294811F004FC59
:1024D00044E72A6082E7B3F57A7FECD81A4493B2D6
:1024E000A8F80030E7E700BFE6100024E51000245C
:1024F000E41000240103002498090024B84E0024AD
:10250000004E0024FE4D002400040258EF10002469
:10251000D0100024CE1000243C2C0024382C0024A1
:10252000FA1E00245F4E00245E4E0024EE100024AC
:10253000C84E0024BC4E0024BE0200240A1F002402
:10254000D2100024342C0024302C0024CC4E002443
:10255000984E0024000400403C4F0024244E0024E8
:10256000F24D0024DA100024D4100024D8100024E6
:102570004C090024CE4E0024F34D0024944E002438
:102580002DE9F041344E354D337895F800C0344C88
:10259000344F86F800C03B7094F800C0324B85F889
:1025A00000C04FF02D0C1B7884F800C02BB92F4BC6
:1025B0001B78002B37D0BDE8F0812D4F2D4E3D7894
:1025C000735D002946D001EB030C2B4C64210138CC
:1025D0005FFA8CFC01FB054410F801EF591C04F86C
:1025E00003E0CBB26345F7D106F805C0002AE2D07C
:1025F0000CF10402204C6421204BD2B201FB0544B3
:1026000013F8011B04F80C100CF1010C5FFA8CFCA0
:102610006245F5D16B1C7255DBB2502B08BF00230D
:102620003B70BDE8F0810A464FF47A7301461448C6
:1026300013F026F93378217801223B702B78227031
:10264000042233700A2329700D480C49BDE8F0417B
:1026500013F016B99C46C7E7E8100024E7100024E1
:10266000E6100024E9100024EE4B00243E11002463
:10267000EA4B0024582C0024A82C00241403002426
:10268000200800242DE9F04FDFF8C8A09DB0DFF846
:10269000C8B04FF00A0C9AF80020DFF8C0908BF811
:1026A00000202A4ADFF8B8800092002299F80060E2
:1026B00098F800408DF8042042008DF806108AF842
:1026C000006089F8004088F800C08DF80520A9B3A3
:1026D00003461F4A684602EB430E00EB41070246E1
:1026E00003E0264664464FF01A0C02323EF9023BE4
:1026F000BA42C3F30725DBB255719371F1D14FF0A4
:102700001A028AF800401CAC8BF8006088F80020A0
:102710004A1E490089F800C0D2B2073104EB4204D6
:10272000C9B204F8695C1CAC04EB420202F8683CD4
:102730000122FFF725FF1DB0BDE8F08F0721684695
:102740000122FFF71DFF1DB0BDE8F08FAA8200082F
:102750003C4F0024E8100024E9100024E710002476
:10276000E610002410B584B0114C4000114B8DF8D8
:102770000C1009128DF809004FF01A0C2078012274
:102780008DF80B100C498DF80A2008700B210B48AE
:10279000217009211C7883F800C0002304700848C8
:1027A0008DF80830019001A8FFF7EAFE04B010BDD3
:1027B000E7100024E6100024E9100024E8100024AB
:1027C000AA8200082DE9F04FDFF8E8A0034633485D
:1027D00099B09AF800204FF00C0C8DF80A10027096
:1027E0002F48304A047892F8009014702E4A8AF8E4
:1027F00000900192002280F800C08DF808209A0015
:102800008DF80920002941D001A8284A00EB810B4E
:1028100002EB830E024603E0A14664464FF01B0C18
:1028200004325EF8048B5A45C8F30767C8F30746BD
:10283000C8F307255FFA88F3D77016715571937145
:10284000EAD1164A8AF800404FF01B0482F8009043
:10285000144A82F800C0124A14704C1E07228900E4
:10286000E4B2073102EB8402114CC9B2C4F8008013
:10287000841860326A4402F85C7C01226670A5709C
:10288000E370FFF77DFE19B0BDE8F08F072101A8C6
:102890000122FFF775FE19B0BDE8F08FE9100024A2
:1028A000E6100024E7100024AA820002D44E00247F
:1028B0000C4E0024E81000241D4B1E481E491F4AE0
:1028C00010B51F4C93F800C0D2F800E084F800C0A7
:1028D00090F800C083F800C01A4B91F800C093ED47
:1028E000017AD3ED0E7A80F800C0122077EE877A55
:1028F000D2F804C0144A087003211720C3F85CE022
:10290000C3F860C0C3ED197AC2F818E0C2F81CC061
:10291000FFF758FF0D4B6820B3F90010FFF722FFB7
:102920000B4B6920B3F90010BDE81040FFF71ABF48
:10293000E8100024E7100024E6100024F44D0024E1
:10294000E9100024D44E0024100D0024684E002409
:10295000664E002430B5800085B0184D10EE101A78
:10296000174C01228DF80900164B287894F800C006
:102970001870C1F3072314488DF80E1080F800C0BA
:1029800012488DF80A20019000208DF80D308DF846
:1029900008000D2028701B202070C1F307640C482C
:1029A0008DF80B4080ED000AC1F307400B218DF834
:1029B0000C0001A8FFF7E4FD05B030BDE7100024CE
:1029C000E6100024E9100024E8100024AA82000286
:1029D0000C4E00240F4984460F4A1048104B00B596
:1029E00091F800E083B080F800E0107808701920BA
:1029F00019781870117047F2AA010122019104217F
:102A00008DF807C00DEB0100FFF7BAFD03B05DF8CC
:102A100004FB00BFE8100024E7100024E9100024A4
:102A2000E61000248D498E4A8E4B2DE9F0478E4EDC
:102A300086B00C7845F2843592F800C04FF0300E25
:102A4000347004461878AC4281F800C0107083F8E6
:102A500000E054D045F64F35651BB5FA85F56D0994
:102A6000002D4CD140F2CB77BC423AD07F4FDFF8FB
:102A7000409297F8008039F81890A14571D0DFF89E
:102A80000C82DFF830A298F800903AF819A0A2451D
:102A900056D0DFF82492B9F80090A14570D082F8A2
:102AA00000E01922087004A81A7047F2AA037049BE
:102AB000012204936F4B0D701B786F498DF8133012
:102AC0000B70042186F800C0FFF75AFD6B4A6C4B6F
:102AD000157001223D7088F800501A7006B0BDE8EC
:102AE000F087684C2588684C2478AC4277D0002366
:102AF0005E49664A0B70137006B0BDE8F087087037
:102B0000192030215C4D187004A85F4B117047F2FA
:102B1000AA011B780122049104218DF813302B7037
:102B200086F800C0FFF72CFD45F64F3201235048D0
:102B30005249944203700B70D9D1554A1370D6E7AD
:102B400009F101095FFA89F9B9F1010F40F28380B7
:102B5000504C88F800502478002C55D000233B704E
:102B6000CAE708F101085FFA88F8B8F1020F87F8A0
:102B700000805CD8454B00221A7006B0BDE8F08793
:102B80004FF47A77082604AA434C0223A02100922E
:102B90004FF4407241488DF810500595CDE901671A
:102BA0000EF0B8FC0A2013F0AFFD02234FF4407280
:102BB000A02100943948CDE901670EF0AFFD2378DC
:102BC0006268374937481EF003FD3648FDF700FCC0
:102BD000642382B23349344812F052FE8CE7087005
:102BE000192047F2AA01E4B2187004A8224B0491FC
:102BF000042182F800E0012286F800C08DF813401D
:102C00001C70FFF7BDFC72E70870192182F800E024
:102C100047F2AA020D24197004920421012204A88B
:102C200086F800C08DF81340FFF7AAFC96E70870FD
:102C3000312182F800E01D4A197086F800C092E840
:102C400003000122049004A8ADF814100621FFF738
:102C500097FC3D708EE788F800907FE7E81000242D
:102C6000E7100024E6100024E9100024452C00247D
:102C7000084E0024D24E0024D04E0024292C0024DB
:102C8000402C00242C030024094E0024442C002452
:102C90000A4E0024184E0024640700247C0A0024F5
:102CA00074390408640000248C070024A039040847
:102CB0000C03002408030024260300240E4BF0EE2E
:102CC000046A0E491B880E4A07EE903A0D480E4BD7
:102CD000F8EE677A10B487EEA67A0C780470147850
:102CE00018780C703521094C1070197084ED007A39
:102CF0005DF8044B704700BFBA020024E8100024BE
:102D0000E7100024E9100024E61000244C110024F0
:102D10003249B5EEC00A324A324B3348F1EE10FA6E
:102D200000B591F800C092F800E080F800C081F88A
:102D300000E04FF0360118781970107043DBF0EEA8
:102D4000047AB4EE670AF1EE10FA37FE800AF5EE67
:102D5000C00AF1EE10FA2CDBF0EE047AF4EEE70A8A
:102D6000F1EE10FA22DCF1EE600A20482049D0EDA5
:102D7000007A204B27EE800A1F4A67EEA07A098866
:102D80001B88BDEEC00A1288FDEEE77A5B1A521A64
:102D90001A4810EE101A17EE90CA194494440B46C4
:102DA00017490380A1F800C05DF804FBF8EE040A9F
:102DB000DBE7F8EE047AF4EEE70AF1EE10FAD2D58A
:102DC000F0EE040AD1E7F8EE047AB4EE670AF1EE09
:102DD00010FA48BFB0EE670AB9E700BFE810002458
:102DE000E7100024E6100024E91000244C11002410
:102DF000B8020024B6020024B402002448110024C2
:102E00004611002429492A4A2A4B2DE9F043B1F8FA
:102E100000E00025284987B04FEA1E2792F800807D
:102E20000E88EC4667F307052449370A244C6EF3F5
:102E30000F254FF0000E088867F3070E2149C027C1
:102E400066F30F2E060A098866F3174560F31F65BF
:102E5000080A60F3174E187861F31F6E1A49B1F92A
:102E6000026091F90390194981F8008018490870AF
:102E7000372111701A221A700FCCACE80F0094E8B9
:102E80000300012268468CF8041015218DF80570A6
:102E9000CDF80B50CDF80FE08DF813908DF814603D
:102EA000FFF76EFB07B0BDE8F08300BFB20200245D
:102EB000E7100024E6100024AE020024B002002433
:102EC000F0360408AC0200243C4F0024E910002432
:102ED000E8100024304B314ADFF8E0C02DE9F0471C
:102EE0002F4D1B78DFF8D8A02B7013782D4FEB7087
:102EF00001332D4E137037239AF800E02B71002315
:102F00006B70AB7000283DD0DFF8AC90291D274CCA
:102F10004B4609EB000814F8012F03F8012B434539
:102F200001F8012FF7D1431DC21D011D0024DBB2A2
:102F300009F80040D2B2C9B2994603F1010869709C
:102F4000174D1B4CE8181B4B29461A7050234FF69F
:102F5000FF728AF8003011F8013B53408142DBB226
:102F600034F8133083EA1222F5D105F80920120A49
:102F700050238CF800E005F808204F2233703A7097
:102F8000BDE8F0870C4B4FF00509072204211870AB
:102F90004FF006084B46D2E7FC0C0024080D002435
:102FA0000C110024E8100024E71000244E0C00242B
:102FB000EC65040808110024740C0024E9100024B6
:102FC000E6100024000000007349744A7448754BF1
:102FD0002DE9F0410C78744D04701078D5ED010A9C
:102FE00008705621187895ED000A19701070FFF7D7
:102FF0008FFE6E4B6E4C1B886E4A6F4F12886F4E61
:1030000023816F4B6F49E28023603A7833880988C7
:103010009A42A18000F0A6806B4B1B68C4F80A306E
:1030200064226A4BDFF8F8811B8898ED007A07EE7E
:10303000903A02FB03F3664AF8EEE77AB2F9002011
:1030400093FBF2F367EE877A2382624BFDEEE77A19
:103050001B88638217EE903AE381FEF74DFB5E49D1
:103060005E4B0988DFF8BCC1A1825D495D4A0988D1
:10307000C4F81CC043F28A2CE1825B49A4F828C042
:1030800047F2124C0988B2F9020021835749A4F88B
:1030900032C046F64D3CB1F90010E0856184A1854F
:1030A000E1865349A4F83CC0B1F90010E1842186BF
:1030B0006187B3F900102184E187B2F90010B2F9F9
:1030C0000420A184A4F84010B3F90410B3F902302D
:1030D0002287A1866385A4F84230464BA4F8482095
:1030E0001B88454A07EE903A444BA4F846101B88CB
:1030F000F8EEE77A3188A4F85030414B16881B88E7
:1031000098ED007AA4F852303E4B67EE877AA4F827
:1031100044001B88A4F84A60387856889288884210
:103120006383A4F84E20384B6A68A4F84C602C687E
:10313000C3ED137A1C655A651ED0344A3449B2F97E
:103140000420096801FB02F207EE902A9FED105B54
:10315000B8EE676B86EE057BB7EEC77B83ED167A1C
:10316000BDE8F0812B4A0023128862F30F032A4A3C
:10317000128862F31F4351E7284A92ED007AB8EEB5
:10318000477A83ED167ABDE8F08100BFAFF3008087
:103190000000000000408F40E8100024E7100024E9
:1031A000E9100024E6100024C04E0024BC020024D4
:1031B000481E002446110024D04E00242C03002475
:1031C0000700010048110024FC1E0024521F0024A7
:1031D000262C0024BE4E00242C2C0024844E0024D7
:1031E000CA4E00247C4E0024CC4E0024AA020024A7
:1031F000A80200245A1F0024744E0024CE4E00243E
:103200004C1F0024F4100024D44E00243C4F002412
:10321000B84E0024DC100024E0100024D410002458
:10322000204E0024050003002D4B2E492E482F4A26
:1032300070B42F4C1D7825700D78047805705720D8
:103240001C7008702B4BD2F80A002B4918602B48D1
:103250002B4C008825889881B2F852009D80D88137
:10326000D08FB2F846501882B2F840005882B2F8B7
:1032700042009882B2F84400D8820888D8800020A2
:1032800020800880D089518A1881B2F816C05981EF
:10329000A3F81CC01B49B2F818C0B2F8480009785E
:1032A000D66C1D83A3F81EC0174DB2F84AC0B2F801
:1032B0005020164C588319855E6215491A84A3F86C
:1032C00022C02B686A6813480B60E36C4A60A46DE7
:1032D00002688B6043684C61CA600B6170BC7047C8
:1032E000E8100024E6100024E7100024481E002403
:1032F000E9100024300D0024DC0C00242A2C0024CA
:10330000DE0C0024141F0024544E0024D44E00244C
:10331000100D0024444E0024194A1A481A4B1B4928
:1033200030B4056814781A4804701878194C107075
:1033300040F6FF720878B4F800C0521B187040F2D3
:10334000223359209C45087017D81349A3EB0C0071
:1033500040F23B34114B09781CFA80F092B249429A
:1033600012B221408C440844991C03EB4C0301EB3E
:10337000400123F8022B8B42FBD130BC704700BFC9
:10338000E8100024342C0024E7100024E610002468
:10339000E9100024E40C0024461E002458110024E7
:1033A0002DE9F04F002287B0404C41492378049228
:1033B000404A0B701378404923700B783F4D1370CF
:1033C0005A230B70FFF730FF3D4B93F800C03D4B85
:1033D0001E8840F2766303FB0C53A3F846663A4B13
:1033E0001F88002F5FD040F23B332078314A3249AA
:1033F00003FB0CFC0290049B107891F800A04FF4A2
:103400004971DFF8D090DFF8D080DFF8D0B00190BC
:10341000059308E001333BF81010DBB225F81E10CD
:103420001146BB422CD298194A1C0CEB010E18F81D
:10343000004092B219F80000002CEBD0234C01336D
:10344000624404EB8000029CDBB2D0ED007A881C61
:103450000494BB42019CCDED037A02940CEB010471
:1034600081B20398CDF804A04FF0520A25F8140059
:103470004FEA104025F812004FF001020592D2D316
:10348000059B83B10C4B019A83F800A0094BDDED3D
:10349000037A1A70064B049A1A70044B029A1A7037
:1034A0000B4BC3ED007A07B0BDE8F08FE8100024A5
:1034B000E9100024E7100024E6100024581100242D
:1034C000461E00240C0D00240A0D0024100D0024BB
:1034D0000C4E00242002002440020024300D002461
:1034E000044B02689A4200D07047034B02221A70C4
:1034F000704700BF004C0040E84B002419491A4AAD
:103500001A4B1B4810B51B4C91F800C0007884F88A
:1035100000C014780C706C211C781970147010B9EC
:10352000154B1B7833B1154B0124154A1B781470C9
:1035300063B110BD134B1B78002BF4D10F49104A17
:103540000978137001F0FF040029F2D122464021CE
:103550000D480DF041FE224680210B48BDE8104089
:103560000DF03ABEE8100024E7100024E610002415
:10357000074E0024E9100024044E0024D40C00243B
:10358000422C0024ED100024001402581249134B61
:10359000134A1888B1F91E30B1F9541012885B1A19
:1035A0001049B3FA83F330B45B090F4C0F4D94F814
:1035B00000C01A4403440E4885F800C090F800C0CB
:1035C00084F800C00C7804706F200A4C08702270D8
:1035D000094A137030BC70473C4F00242A03002472
:1035E0003A030024E6100024E8100024E910002427
:1035F000E7100024D24E0024D14E002430B5164CE2
:1036000085B0217820B3F8203922E72500238DF8F2
:103610000E50124D8DF80C30114B8DF80B0001A897
:10362000197070210F4B8DF80D20012219701A238B
:103630000B2123702B704FF456430B4CADF8083020
:10364000022301948DF80A30FEF79AFF05B030BDD1
:1036500002460546DAE700BFE6100024E710002422
:10366000E9100024E8100024AA8200081248134A36
:10367000134B144930B5144C83B005782570147879
:10368000124D04701C7803C91470712200902846F2
:103690001A70ADF80410FCF79BFE04460022684641
:1036A0000621FEF76DFF611C01222846C9B2FEF714
:1036B00067FF03B030BD00BFE8100024E71000240E
:1036C000E610002408370408E9100024181F00241D
:1036D0002E492F4A2F4B304870B4304C0D7800786B
:1036E000257014780C706E211C78197014700028E5
:1036F0003ED12B4B1C88E0072DD4A1071FD46207B5
:1037000011D4230702D470BCFFF7B0BF254D264C5F
:103710000FCD0FC40FCD0FC495E80F0007C4238051
:1037200070BCFFF7A3BF214E1F4D0FCE0FC596E80B
:103730000300230745F8040B2980E4D5E6E71C4E77
:10374000194D0FCE0FC596E80300620745F8040B2C
:103750002970D6D5E7E7174E134D0FCE0FC5336846
:10376000A1074FEA134225F8023B2A70C7D5E6E7C6
:10377000114D0D4C0FCD0FC40FCD0FC495E80F00A8
:1037800084E80F0070BCFFF771BF00BFE810002491
:10379000E7100024E6100024282C0024E91000245F
:1037A0004E1F00241C3A0408181F0024043A040881
:1037B000EC390408D8390408A83904081549164A10
:1037C0001648F8B50E78164B06701078154C087030
:1037D0001978154D11706D21228819702B88134EA0
:1037E0009A420BD0124F387878B9FFF707FF337839
:1037F0000BB1002333702B882380F8BD3378002B66
:10380000FBD00B4F38780028EFD0FFF761FF3878F6
:10381000EBE700BFE8100024E7100024E9100024C3
:10382000E61000244A1F00244C1F0024402C0024D2
:10383000422C00241248134A134B144930B5144C3F
:1038400083B0057825701478124D04701C7803C974
:1038500014707222009028461A70ADF80410FCF71C
:10386000B7FD0446002268460621FEF789FE611C6A
:1038700001222846C9B2FEF783FE03B030BD00BF67
:10388000E8100024E7100024E61000241037040894
:10389000E91000242C0100241248134A134B144948
:1038A00030B5144C83B0057825701478124D04702F
:1038B0001C7803C91470732200902846ADF80410D8
:1038C0001A70FCF785FD04466423694606220B48FE
:1038D00011F0D6FF611C01222846C9B2FEF750FE46
:1038E00003B030BDE8100024E7100024E6100024E7
:1038F00018370408E9100024740C00242008002460
:103900000E4900200E4A0F4B10B50F4C82B091F8B3
:1039100000C08DF8060084F800C01478ADF80400EB
:103920000C7076211878094C1070012219706846C5
:1039300007210094FEF724FE02B010BDE810002419
:10394000E7100024E6100024E9100024AA7A010000
:103950002D4B2E4AF0B52E4C83B01D7806462D4FC8
:1039600025700C46157838681D702B4B197811702E
:1039700077221A7013F0CEF8D8B1082015F0B4F9F8
:1039800005460190002837D020462C8015F0ACF970
:10399000019B68605868A8B1224631461EF031F894
:1039A000002301A938681A4613F03EF8A8B903B0FD
:1039B000F0BD642324221949194803B0BDE8F04042
:1039C00011F05EBF184615F09BF9642323221549B8
:1039D000134811F055FF03B0F0BD282212496423AB
:1039E0000F4811F04DFF019B586815F089F90198B7
:1039F00015F086F903B0F0BD642322220B49084874
:103A000011F03EFF03B0F0BDE8100024E7100024E1
:103A1000E910002480070024E6100024543A04082A
:103A20008C070024CC3A0408A03A04087C3A040825
:103A30002049214A214838B50C78214B047014786C
:103A400018780C70582110701970FFF765FCFFF79B
:103A5000A7FC1C481C4B40F27661B0F800C01B78F4
:103A60001A4D4CF4E64C1A4C58422A7801FB03F3E9
:103A7000084024F803C04FEA022C013223442044BA
:103A80004F242A704CF006029C805A8045F2555211
:103A9000A3F87426FFF75CFF0E4A0F49D2ED007AB7
:103AA0009FED0E7A0B8877EE877A0133C2ED007AAC
:103AB0000B8038BDE8100024E7100024E910002432
:103AC000E61000243C4F0024461E0024080D00246C
:103AD00058110024CC0C0024C80C002400C0CE4493
:103AE0004B1E274A9BB22DE9F042264D01F10209F7
:103AF00043701B0A244F1FFA89F983702B7892F8C0
:103B000000E03B705C23214E2B70502386F800E0D0
:103B1000137089B34FF6FF7C00231D4CC25C013348
:103B200082EA0C02DBB2D2B2994234F8122082EA65
:103B30001C2CF3D85FFA8CF2CCF3072C5C234418CE
:103B400087F800E0337050232B704254494684F8C4
:103B500001C0FFF7FDFE07EE909A0E490E4AF8EEFF
:103B6000E77A91ED007A138877EE877A0133C1ED19
:103B7000007A1380BDE8F0824FF0FF0C6246DDE76B
:103B8000E6100024E7100024E9100024E8100024C7
:103B9000EC650408CC0C0024C80C0024144B154818
:103BA0001549164A10B5164C82B093F800C04FF074
:103BB000300E84F800C0047891F800C01C7080F8C2
:103BC00000C03A2013780F4C8DF803300133B4F85D
:103BD00000C0AA2408700621684613708DF80040C2
:103BE0008DF804E08DF805C0FFF77AFF02B010BD34
:103BF000E8100024E7100024E6100024080D00243B
:103C0000E91000243C4F0024194B1A481A491B4A5A
:103C100030B51B4C85B01D7825700478194D1C708B
:103C20000C78137804703B248DF8073001330C7046
:103C3000AA21154C13708F22288823788DF8041040
:103C40008DF808208DF8090083B9104B1B88002BD4
:103C500014BF0222FE220623082101A88DF80A20A3
:103C60008DF80B30FFF73CFF05B030BD0222F2E7C4
:103C7000E8100024E7100024E6100024080D0024BA
:103C8000E91000243C4F0024184E0024BE4E0024AE
:103C900010B5144A82B0144B144C93F800C08DF840
:103CA00005001349107882F800C04FF03C0C114A0F
:103CB000087021781048197011784378007863F003
:103CC0007F0384F800C08DF800004C1C8DF80310B1
:103CD0006846062114708DF80430FFF701FF02B02A
:103CE00010BD00BFE8100024E7100024E6100024F7
:103CF000E9100024080D0024FC0C002470B4164DBB
:103D0000164E2B781648DB431649174CDBB291F858
:103D100000C036F813206B7882F0FF026D885340A4
:103D2000DBB236F8133083EA1223027822709D4208
:103D30000E4A82F800C04FF0390202704FF0510075
:103D40000B4A0870138003D0012070BCFFF7A0BF9E
:103D500070BCFFF723BF00BFFC0C0024EC65040817
:103D6000E7100024E6100024E9100024E8100024E5
:103D7000FA0C00241C4A1D4838B51D4B92F802E08D
:103D800093F800C000EB0E011A4D1B4A85F800C0E5
:103D90000EF1010C4D788978184C45EA012511780F
:103DA00021704E21164C117051224FF6FF711A707E
:103DB0000023C25C01334A40DBB2D2B29C4534F8E6
:103DC000122082EA1121F4D80E4B8D42198004D0C2
:103DD0000120FFF75DFF002038BDAEF10200C0B248
:103DE000FFF778F8012038BDFC0C00244C0C0024AF
:103DF000E6100024E8100024E7100024E910002455
:103E0000EC650408FA0C00244C4B4FF03E0C4C4A75
:103E10002DE9F04FADB01B784A4D4FF0500E8DF8A4
:103E2000143013782C788DF817300133464E137008
:103E3000322296F8009000238DF81820434A8DF81E
:103E400019001470424A8DF8153082F80090020A69
:103E50008DF8163085F800C086F800E08DF81A203D
:103E6000002961D005AA8846DFF8F4B00721DFF801
:103E7000F4A00393029210E03649013331F9122085
:103E8000DBB2F9B204F89C2C4345C2F3072204F8D4
:103E90009B2C31D2E146F446AE461A1801F1B0042B
:103EA0008F1C50251AF802606C441BF80220002E6B
:103EB000E2D0294C013304EB8202029CDBB2D2ED4A
:103EC000007A0C440A1DB031CDED017A43450DEB6B
:103ED0000105D1B2019A05F89C2CC2F30725657043
:103EE000C2F30745C2F30762A5704FF05205E270B6
:103EF0004FF001020392CDD3039B23B1174BDDEDAD
:103F0000017AC3ED007A104B02981D700D4B83F8B7
:103F100000E00E4B83F800900D4B83F800C0FFF7D4
:103F2000DFFD2DB0BDE8F08F05AB072102930298AD
:103F3000FFF7D6FD2DB0BDE8F08F00BFFC0C0024CC
:103F4000080D0024E7100024E6100024E9100024E6
:103F5000E81000243C4F0024D44E00240C4E0024D2
:103F6000B8010024EC01002430B5194B5122194D41
:103F700019499C46194C2A700CF1060E0A70588893
:103F8000DD8899883D232370154B164C1A704FF627
:103F9000FF721CF8013B5340E645DBB234F81330A6
:103FA00083EA1222F5D1104B95421A800BD14318A7
:103FB000312B04DD0320BDE83040FFF769BEBDE8CA
:103FC0003040FFF721BF0120BDE83040FFF760BE61
:103FD000FC0C0024E6100024E7100024E910002463
:103FE000E8100024EC650408FA0C002430B585B014
:103FF000174D0023174CADF80C10174994F800E04A
:1040000091F801C009784CF0800C8DF804102978E3
:1040100061F3070301316CF30F2329700A2162F366
:1040200017430E4A60F31F63000A82F800E0CDF8E0
:1040300007308DF80B003F20094B0A4A18705023B7
:1040400001A823701370FFF74BFD05B030BD00BF12
:10405000080D0024E6100024FC0C0024E9100024C4
:10406000E8100024E710002470B584B0184A194EF7
:1040700000238DF80B00000A92F801C009218DF889
:104080000C0030784CF0200C134D60F30703013026
:1040900095F800E06CF30F23307090780F4C60F3CC
:1040A0001743D07860F31F6301A8CDF80730137869
:1040B00022788DF804300A4B83F800E0094B1A701F
:1040C000422250232A702370FFF70AFD04B070BD0E
:1040D000FC0C0024080D0024E7100024E610002446
:1040E000E9100024E8100024DFF8A8C0F0B59CF81F
:1040F000013085B01F4E63F07F039CF800C01E4C5A
:104100008DF8083033788DF804C08DF8073001330E
:104110001A4F33701A4D94F800C01A4E8DF80920CA
:1041200008B3194BADF80A10595C032A18D0052AB8
:1041300016D0164B33F91130DAB2C3F307238DF8DA
:104140000D3050230A2101A833702370432387F8D0
:1041500000C08DF80C202B70FFF7C2FC05B0F0BD3D
:1041600000221346EBE70A4B8DF80B005B5C8DF8E1
:104170000A30DAE7080D0024E6100024E9100024D4
:10418000E8100024E7100024B80100243C4F00246C
:1041900088010024FC0C002470B584B0184A194E24
:1041A00000238DF80B00000A92F801C009218DF858
:1041B0000C0030784CF0200C134D60F307030130F5
:1041C00095F800E06CF30F23307090780F4C60F39B
:1041D0001743D07860F31F6301A8CDF80730137838
:1041E00022788DF804300A4B83F800E0094B1A70EE
:1041F000452250232A702370FFF772FC04B070BD73
:10420000FC0C0024080D0024E7100024E610002414
:10421000E9100024E8100024174B184A1B8810B539
:10422000174C84B092F800C08DF8043023788DF8D4
:104230000B10C1F307218DF8073001338DF80C10F6
:10424000092123709F2346248DF808300D4B185CFC
:1042500050238DF80900002013708DF80A000A4AD7
:104260000A4882F800C0047001A8094A1370FFF7D9
:1042700037FC04B010BD00BF3C4F0024E610002402
:10428000080D002488010024E9100024E81000240F
:10429000E7100024F0B5204E85B0204D7378204CF7
:1042A00063F07F03367894F800C08DF804302B78E3
:1042B0001C4F8DF8033001338DF805208DF8006018
:1042C0002B7010B3184BADF80610595C032A19D0A7
:1042D000052A17D0154B03EB81031B681A4602927F
:1042E0004720134A0C2182F800C0124A1070502255
:1042F00052203A70207068460F4A1360FFF7F0FBB7
:1043000005B0F0BD00220023E9E70C4B8DF8070053
:104310005B5C8DF80630D9E7FC0C0024080D002406
:10432000E6100024E7100024B8010024D44E002435
:10433000E9100024E81000240C4E0024740100242D
:104340002149002210EE100A30B50B7885B01F4CC1
:10435000C0F3072E63F3070201331D4D0B70030EEC
:10436000617895F800C041F0200161F30F2200212F
:1043700060F307016EF30F2194F802E06EF3174229
:10438000C0F3074E68466EF3174163F31F61114B8C
:10439000CDF80710E17861F31F621978CDF803209A
:1043A000227852248DF800200B4A1C7082F800C03D
:1043B0000A4A117049220B212A70094A82ED000A2B
:1043C000FFF78EFB05B030BD080D0024FC0C002467
:1043D000E7100024E6100024E9100024E81000246F
:1043E0000C4E002410B51E4C84B01E4910EE102A4D
:1043F000237891F800C08DF8033001338DF8072041
:1044000023709F2300248DF80430174B8DF806404D
:104410004A24185CC2F307638DF8050013488DF831
:104420000A3000888DF80000114880F800C011485B
:104430000470502410480470522410480C70C2F3C9
:104440000721C2F3074480ED000A8DF80810684682
:104450000B218DF80940FFF743FB04B010BD00BFEE
:10446000080D0024E6100024740100243C4F0024B1
:10447000E9100024E8100024E71000240C4E00246A
:10448000BA49BB4ABB4B2DE9F043BB4D1024BB4E90
:104490002DED028B087885B092F800C0287096F850
:1044A00000E0187881F800C010701C70BEF1000F99
:1044B0006FD1B34CB34FDFF8049397F8008067686F
:1044C000E4783FBAA40808EE107AC9F80070B8F191
:1044D000000F03D0AC4F3F78002F49D1087004EB98
:1044E0004400AA4985F800C001EB80011020D1EDFD
:1044F000007A10700722B4EEE78A1A70F1EE10FA13
:104500003ADBD1ED017AB4EEE78AF1EE10FA33D856
:104510009F4DA30005EB8402D2ED007AF4EE487AB9
:10452000F1EE10FA2AD0122C6AD9A200A046274632
:10453000A30002F580722B444FF47A7195480093E2
:104540000423CDE901310223A0210CF0E3FF3378ED
:10455000002B40F0EE80904B1B7823B18F4BDB5D3E
:10456000642B40F0F98005B0BDEC028BBDE8F08310
:104570008B4F3F5D002FB1D1854DA3002B442046CA
:1045800093ED000A05B0BDEC028BBDE8F043FEF7E9
:10459000E1B90870072114701970824B824993EDBC
:1045A000008A0C78774B794A1B7804EB440385F832
:1045B00000C002EB8303D3ED007AB4EEE78AF1EE9C
:1045C00010FA13DBD3ED017AB4EEE78AF1EE10FABC
:1045D0000CD86F4DA30005EB8402D2ED007AB4EE47
:1045E000678AF1EE10FA9ED1022200E004222146F1
:1045F000002005B0BDEC028BBDE8F043FFF74ABEDA
:10460000621E0D2A08D8DFE802F083070707076952
:104610004F351B07070707112B44A200A04627466A
:1046200083ED008A02F58072A30084E75F4A127866
:10463000002A00F0C580BEF1000F9FD00622D6E709
:10464000D5ED077AF4EEC87AF1EE10FAF3D5584AB0
:104650000927584BD2ED007AB84685ED098A68EEF5
:10466000277AFCEEE77A17EE902A5A8024234FF43B
:10467000927260E7D5ED067AF4EEC87AF1EE10FAA0
:10468000D9D54B4A08274B4BD2ED007AB84685ED79
:10469000088A68EE277AFCEEE77A17EE902A1A80ED
:1046A00020234FF4907246E7D5ED097AF4EEC87AEC
:1046B000F1EE10FABFDD3E4A07273F4BD2ED007AFC
:1046C000B84685ED078A68EE277AFCEEE77A17EEA2
:1046D000902A5A801C234FF48E722CE7D5ED087A6D
:1046E000F4EEC87AF1EE10FAA5DD314A0627324B16
:1046F000D2ED007AB84685ED068A68EE277AFCEEA0
:10470000E77A17EE902A1A8018234FF48C7212E77A
:1047100095ED0E0A0127192085ED018A38EE000A71
:10472000B84685ED190AFEF715F904234FF4827295
:1047300001E705EB8707204697ED000AFEF70AF927
:1047400097ED000AFFF7FCFD022005B0BDEC028BDF
:10475000BDE8F04311F0D8BFB0EE480A404605B0BE
:10476000BDEC028BBDE8F043FFF73CBEE81000242F
:10477000E7100024E6100024E9100024F80C0024BF
:104780004C2C0024D40C0024011100244C040024DF
:10479000D44E00247C0A0024E10C0024740100247F
:1047A000B40C0024F00C0024F60C0024184E002455
:1047B000244E0024284E00242C4E00240C4E0024AD
:1047C0001E4FB7F9061007EE901AF8EEE77AF4EEEE
:1047D000C87AF1EE10FA3FF62EAFB7F9041007EEE3
:1047E000901AF8EEE77AF4EEC87AF1EE10FAFFF6D6
:1047F00022AF134B85ED0E8A1A70FDF763FAFEF7B0
:104800005BF8B7F90430F2EE006A95ED0E6A07EE38
:10481000903AB6EE007A0B4B0E27F8EEE77AB846E0
:10482000E6EE667A67EE877AFCEEE77A17EE902A74
:104830001A8038234FF49C727DE600BF3C4F002461
:10484000C94E0024FE02002438B5254B5122254CC8
:104850005D6803F1070C24482560482459880470DA
:1048600053242248B3F808E002702148047021481C
:10487000214C0270581E4FF6FF7210F8013F534052
:104880008445DBB234F8133083EA1222F5D11B4B96
:1048900096451A800BD130290FD8194B5B5C012B40
:1048A00011D005220120BDE83840FFF7F3BC0122FA
:1048B000BDE838401046FFF7EDBC03220120BDE8FB
:1048C0003840FFF7E7BC0F4C0F4A2370525C0F4B88
:1048D0000F491A800D60FFF7D3FD0023237038BD08
:1048E000FC0C00240C4E0024E9100024E8100024E5
:1048F000E7100024E6100024EC650408FA0C0024FC
:10490000EC010024F80C0024B8010024F60C00246B
:10491000F00C002430B4104C104A94F800C0104D34
:10492000104B85F800C092F800C084F800C01C78D5
:10493000147040221A7030B90B4B084630BC33F962
:104940001110FFF769BC094B084603EB810330BC2B
:1049500093ED000AFFF746BDE8100024E71000249D
:10496000E9100024E61000243C4F0024D44E00241B
:10497000514B4FF0500C514800221B882DE9F04F4D
:104980009FB04F4C8DF814304E4B21781B788DF82A
:1049900015201B018DF8162043F00F038DF81830F9
:1049A000494B1F8803788DF819708DF81730013343
:1049B0000370464B4648B3F80080464B01704B20CD
:1049C00093F80090444983F800C03B0A81F80090B6
:1049D00020708DF81A30B8F1000F63D0134603929F
:1049E00005AA0721DFF800B1DFF800A1029211E06B
:1049F0003A49013331F91220DBB25FFA8EF105F842
:104A0000642C4345C2F3072205F8632C33D2814658
:104A10006046A446DA1901F1780401F1020E1AF891
:104A200002600DEB04051BF802205024002EDFD09D
:104A30002B4C013304EB8202029CDBB2D2ED007AF4
:104A40000C440A1D7831CDED017A43450DEB01058B
:104A5000D1B2019A05F8642CC2F307256570C2F340
:104A60000745C2F30762A570E2704FF001024FF0F4
:104A700052040392CBD3039B23B11A4BDDED017A91
:104A8000C3ED007A134B1C700D4B83F800C0104B24
:104A900083F80090104B18700298FFF721F81FB0B0
:104AA000BDE8F08F05AB072102930298FFF718F8D5
:104AB0001FB0BDE8F08F00BF3C4F0024080D00245C
:104AC000E7100024D20C00240C0D00240A0D002451
:104AD000E9100024E6100024E8100024300D002422
:104AE000100D00240C4E002420020024400200245B
:104AF0001B491C4A1C4838B591F800C01B4B80F874
:104B000000C010781A4C08705B211878197010706A
:104B100022785AB1174B1B78D3B9174B1B78D3B9EE
:104B20000023164D237000232B8038BD144B1B88A7
:104B3000002BFAD1114D2B88B3F57A7FF5D30E4BAC
:104B40001B78002BEFD0FEF76FFBFFF711FFEAE7B2
:104B5000FEF76EFFE4E7FEF767FBFFF709FFDFE70D
:104B6000E8100024E7100024E9100024E6100024D7
:104B7000441E0024E60C00240E0D0024E80C002442
:104B8000BE4E00243349344A344B30B5344C8DB0DA
:104B90000D788646257014781D780C7015704D229E
:104BA00030491A7000220B782F4C8DF813300133E6
:104BB00024780B7036232D4D8DF810408DF8112080
:104BC0008DF812208DF8143060B1294C05A92B46C0
:104BD00005EB000C14F8012F03F8012B634501F8D5
:104BE000012FF7D10EF10501002304A8C9B205F881
:104BF0000E3085F815E0FEF773FF1C48FBF7E8FB65
:104C0000642382B219491B4810F03AFE4FF47A70BF
:104C1000162102234FF400720095CDE90110A02166
:104C200015480CF077FC0A2011F06EFDFEF702FE2D
:104C3000124B1A7822B1124B01221A700DB030BDFE
:104C4000012170201970FDF78DFD0D4B01221A70A6
:104C50000DB030BDE8100024E7100024E610002459
:104C6000E9100024080D0024FC0C00242C01002471
:104C7000960C00248C0700247C0A002400110024D8
:104C8000430C00241C4A1D4B1D4830B592F802E02D
:104C900093F800C000EB0E011A4D1B4A85F800C0C6
:104CA0000EF1010C4D788978184C45EA01251178F0
:104CB00021704C21164C117051224FF6FF711A7061
:104CC0000023C25C01334A40DBB2D2B29C4534F8C7
:104CD000122082EA1121F4D80E4B8D42198004D0A3
:104CE0000120BDE83040FEF7D3BFAEF10200BDE8C1
:104CF0003040C0B2FFF746BFFC0C0024E610002491
:104D0000940C0024E8100024E7100024E91000248B
:104D1000EC650408FA0C00245E4B5F4A1B885F496F
:104D200070B588B05E4C5F4E8DF8043013785E4DE0
:104D30008DF80730013394F800C01370AF230A7860
:104D40008DF808305E238DF80900002848D001282E
:104D500028D0022868D1554A3370554B10781A88EC
:104D6000002360F3070362F30F23120A62F3174371
:104D7000504A12888DF80F20120A8DF810204E4AE2
:104D8000128862F31F63120ACDF80A3050238DF89F
:104D90000E200B7023702B700D2101A8FEF7A0FED2
:104DA00008B070BD424A3370502312880B704148DE
:104DB000110A23702B708DF80C1003883E498DF872
:104DC0000B201A0A8DF80F300B888DF810208DF803
:104DD0000D301A0A00238DF80E208DF80A30DBE71B
:104DE0002A70542223700A70344A354B127819788D
:104DF0008DF8100062F307005B6861F30F20314CFF
:104E0000C3F30722C3F3076163F317402360C3F3BF
:104E1000074486F800C062F31F608DF80F108DF80C
:104E20000E40CDF80A00B7E7274A002312888DF814
:104E30000A308DF81120120A244B8DF812201B889D
:104E4000234A8DF80B301B0A12888DF80C308DF830
:104E50001320120A1F4B8DF8142050221B68227059
:104E6000C3F307200A7032705422164C11218DF8BA
:104E70000D302A70C3F307422360C3F307638DF834
:104E80000E0001A88DF80F208DF81030FEF728FED7
:104E900008B070BD3C4F0024080D0024E61000242B
:104EA000E7100024E9100024E8100024F610002484
:104EB000400C00243E0C00243C0C0024FD10002477
:104EC000640700240C4E0024D0100024D8100024C5
:104ED000CE100024D4100024F0B5224C83B0224E12
:104EE0004FF6FF72214D2146377804F1030C95F8F7
:104EF00000E01F4811F8013B53406145DBB230F838
:104F0000133083EA1222F5D11A4B1A801A4B1F7004
:104F10001A4B83F800E05D23337051232B70B4F8F3
:104F20000330934205D00120FEF7B2FE002003B00B
:104F3000F0BD134D684662782B78A17842F02002CC
:104F400026788DF8033001338DF8051006218DF891
:104F500004208DF800602B70FEF7C2FD012003B025
:104F6000F0BD00BFFC0C0024E7100024E610002474
:104F7000EC650408FA0C0024E9100024E810002471
:104F8000080D00246C496D4A6D486E4B70B56E4C2F
:104F900091F800C01B7884F800C092F800C081F836
:104FA00000C090F800C0694982F800C04FF0780C4A
:104FB00003EB830280F800C06548550010F803E059
:104FC0006448B0F900C011F8120001EB42026045DC
:104FD00002D0AA282CD070BD52789C00133A022A25
:104FE00005D85D4A1578032D50D0022DF3D15B4AC8
:104FF000127892B3BEF1080F00F08280BEF1050F67
:105000005BD0BEF10A0F61D0BEF1030FE3D11C44A7
:1050100001EB44046378162BDDD1514A5149A47841
:105020000B70537001235049107094700B7070BD59
:10503000BEF1040F31D0BEF1030FCCD15378172B42
:10504000C9D1484D41F2AA744549907801222B708C
:10505000454B0C8088701A7070BDBEF1050FBAD137
:105060001C4401EB44046278192AB4D103EB830396
:105070003C483B4C027001EB430251F8130011799C
:105080000122394B206021711A7070BD0225157004
:10509000324A1278002AADD1DFE75378102B9AD12B
:1050A000304802352E4A4C5B037041F2AA002E496B
:1050B0000123548010800B7070BD1C4401EB44042C
:1050C00062781A2AD2D0112ACED1CFE71C4401EB44
:1050D00044046278152A7FF47EAF03EB8303214EEC
:1050E0001F4C51F8130001EB4305327001231F4A96
:1050F000696813702D891C4A03C41370258070BD24
:105100001C4401EB44046478A4F11202022A3FF625
:1051100062AF03EB8303124A124E01EB430551F8D1
:105120001300114B6968347003C21049002001223A
:1051300008701A7070BD00BFE8100024E71000244A
:10514000E6100024CC100024E9100024AC0D00244B
:105150005C0D00243C4F002471010024E10C00246C
:10516000FC0C00245A0D0024EA0C0024090D002434
:105170002149B5EEC00A214A214B2248F1EE10FA2E
:1051800000B591F800C092F800E080F800C081F806
:1051900000E04FF0610118781970107022D4F5EE1C
:1051A000C00AF1EE10FA15D4174B70EEC00AD3ED19
:1051B0000B7AF4EEE70AF1EE10FA04DA0020134B52
:1051C00018705DF804FB114B18780130C0B21870EC
:1051D0005DF804FBB5EEC00AF1EE10FAEEDCF1EE7C
:1051E000600AE1E7F5EEC00AB1EE400AF1EE10FA0E
:1051F000F5D4E3DCD8E700BFE8100024E710002472
:10520000E6100024E9100024D44E002453070024A3
:105210002149B5EEC00A214A214B2248F1EE10FA8D
:1052200000B591F800C092F800E080F800C081F865
:1052300000E04FF0620118781970107022D4F5EE7A
:10524000C00AF1EE10FA15D4174B70EEC00AD3ED78
:105250000A7AF4EEE70AF1EE10FA04DA0020134BB2
:1052600018705DF804FB114B18780130C0B218704B
:105270005DF804FBB5EEC00AF1EE10FAEEDCF1EEDB
:10528000600AE1E7F5EEC00AB1EE400AF1EE10FA6D
:10529000F5D4E3DCD8E700BFE8100024E7100024D1
:1052A000E6100024E9100024D44E00245207002404
:1052B0004E4B4F4A70B54F4C84B01D784E4E257002
:1052C0000546147831801C7001EB81044B4B64005F
:1052D0001878A4B2107065221A70002C40D04EF6D7
:1052E00060239C421DD823464548464AC360117836
:1052F0000268D36200235362C1B9DDB92A4608218E
:1053000041480BF069FF012204213F480BF064FF84
:105310003E4B1B78002B31D13D4B01221A7004B05B
:1053200070BD41F270721C463280DDE70EF044FD24
:10533000002DE3D00022042133480BF04DFF012261
:10534000082131480BF048FF304B1B78002B31D13E
:10535000338801212F4A5B421170338004B070BD45
:105360002A4B1B78002BDAD022462B492B481CF005
:105370002FF92B4B01221A7004B070BD29482A491D
:105380002A4B90ED017AD1ED016A1B78B7EEC77A0E
:10539000274AB7EEE66A2749D05C53EC162BCDE9D5
:1053A00002048DED007B1D481CF012F91C4B0122FC
:1053B0001A70B1E71B4A1C491C4B039492ED017A09
:1053C000D1ED016A1B78B7EEC77A194AB7EEE66AE3
:1053D0001949D05C53EC162B029010488DED007BE0
:1053E0001CF0F6F80E4B01221A70B1E7E810002409
:1053F000E7100024E9100024DC0C0024E61000244F
:10540000000900244011002400140258141F002435
:105410005211002451110024F03A040864000024C1
:10542000604E00243C4E0024444E0024151F0024EE
:10543000040300240C3B04083C3B04086B4AB5EE13
:10544000C00A6B4938B56B4BF1EE10FA6A4C2DED82
:10545000028B157848BFB1EE408A91F800E058BF42
:10546000B0EE408A93F800C02570632582F800E012
:1054700081F800C01D7080BB604DD5ED097AF4EE57
:10548000C87AF1EE10FA53D4D5ED077AF4EEC87A63
:10549000F1EE10FA4CDCD5ED037A594928EE278A53
:1054A000584B0870B3F91820BCEEC88A18EE101AD1
:1054B00089B291425FDCB3F9203091B2002B63D006
:1054C000B5EEC00ABDEC028BF1EE10FABDE8384033
:1054D000D4BF01200020FFF7EBBEF0EE007A484A6F
:1054E0000023B4EEE78A1370F1EE10FA39DCF5EE22
:1054F000C00A424B01214348D3ED057AF1EE10FA80
:105500001170B0F9183048BFF1EE600A60EEA70ADA
:10551000FCEEE00A10EE902A91B2994241DDB0F91A
:1055200014308B425DDCB0F9202099B262BBC7E732
:1055300084F800E06720632482F800C0187000221D
:1055400031480C7004210BF047FE002208212E4840
:105550000BF042FE2D4B1B78002B34D1BDEC028B9F
:1055600038BD2A4B1B78002BF8D0B7EEC87A2849F3
:1055700053EC172B2CE0B3F91420B3F920308A42F6
:10558000D8BF91B2002B9BD1B5EEC00ABDEC028B07
:10559000F1EE10FABDE83840CCBF01200020FFF743
:1055A00087BE07EE903AB6EE086BB0F92030B8EE41
:1055B000E77B27EE067BBCEEC77B17EE102A91B285
:1055C000002BE1D17CE7B7EEC87A124953EC172BD8
:1055D00011481BF0FDFF114B0122BDEC028B1A702C
:1055E00038BDB0F92030002BCED169E7E810002497
:1055F000E7100024E6100024E9100024D44E002413
:10560000151F00243C4F002400140258141F0024CE
:105610008C3B04086C3B040864000024604E0024AA
:105620001E491F4A1F4B204870B5204C91F800C0FE
:10563000007884F800C092F800C081F800C05F21B3
:1056400093F800C0197082F800C010B1184C23788C
:1056500003B970BD174D184ED5ED010A96ED010A3C
:10566000FFF786FDD5ED010A96ED010AFFF7E6FE8C
:1056700012481349002390ED017AD1ED0D7A72683A
:10568000B4EEE77A23706A60F1EE10FA03DD0D4B99
:1056900001221A7070BD0B4A137070BDE81000240F
:1056A000E7100024E6100024194E0024E91000241D
:1056B0005D4E00243C4E0024444E0024344E002411
:1056C000D44E0024054E00244E4B4F4A70B54F4C2B
:1056D00084B01D784E4E25700546147831801C70BC
:1056E00001EB81044B4B64001878A4B21070662261
:1056F0001A70002C40D04EF660239C421DD82346E1
:105700004548464AC36011780268D3620023536259
:10571000C1B9DDB92A46202141480BF05DFD0122C7
:1057200010213F480BF058FD3E4B1B78002B31D128
:105730003D4B01221A7004B070BD41F270721C46DC
:105740003280DDE70EF038FB002DE3D0002210217F
:1057500033480BF041FD0122202131480BF03CFD84
:10576000304B1B78002B31D1338801212F4A5B420B
:105770001170338004B070BD2A4B1B78002BDAD037
:1057800022462B492B481BF023FF2B4B01221A707A
:1057900004B070BD29482A492A4B90ED007AD1ED1A
:1057A000006A1B78B7EEC77A274AB7EEE66A274940
:1057B000D05C53EC162BCDE902048DED007B1D4827
:1057C0001BF006FF1C4B01221A70B1E71B4A1C4953
:1057D0001C4B039492ED007AD1ED006A1B78B7EE72
:1057E000C77A194AB7EEE66A1949D05C53EC162B12
:1057F000029010488DED007B1BF0EAFE0E4B01225B
:105800001A70B1E7E8100024E7100024E910002422
:10581000DE0C0024E6100024B40800243F1100240C
:1058200000140258141F00245411002453110024A2
:10583000A43B040864000024604E00243C4E002475
:10584000444E0024151F002404030024C03B040818
:10585000F03B0408000000002DE9F0417E4E0F21CE
:105860007E4D86B033787E4C7E4FDFF824822A78D6
:105870003B702378217098F8001032702B7000294B
:1058800000F0AF8078480078DFF808C29CF800C0CC
:10589000BCF1000F40F0A2808C2800F29F80DFE86E
:1058A00010F02B050D05E204A204CD056505720577
:1058B0002703AF037C035C03420336041304800414
:1058C000CC029D00770644063006E4052707AF06A4
:1058D0005E070603CB07B907C1073803AF07950773
:1058E0008F027502BC01A9010702FB006A012501B4
:1058F0009901CA009D009D009D009D009D009D0096
:105900009D009D009D009D009D009D009D009D00AF
:105910009D009D009D009D009D009D009D009D009F
:105920009D009D009D009D009D009D009D009D008F
:105930009D009D009D009D009D009D009D009D007F
:105940009D009D009D009D009D009D009D009D006F
:105950009D009D009D009D009D009D009D009D005F
:105960009D009D009D009D009D009D008D009D005F
:105970009D009D009D009D009D009D009D009D003F
:105980009D009D009D009D009D009D009D009D002F
:105990009D009D009D009D009D009D009D009D001F
:1059A0009D009D009D009D009D009D009D009D000F
:1059B0009D009D009D009D00B900A3002B4B2C4A2B
:1059C0001B781278002B40F079873AB1294B1B786D
:1059D00023B9294B1A780AB901221A7006B0BDE81A
:1059E000F081264880784FE7214B1B78002BF5D0BB
:1059F000234B1B78002BF1D1224B1B78002BEDD1D0
:105A000021490122194B08781A7006B0BDE8F0410F
:105A1000FCF7E0BF164B1B78002BDFD0154B1B7833
:105A2000002BDBD1144B1B78002BD7D116490F4A22
:105A300008781370E9E70E4B1B78002BCED0104B83
:105A40001B78002BCAD10F4B1A78002AC6D101222D
:105A50000E491A700A70C1E7E8100024E71000240C
:105A6000E6100024E9100024F60C0024D34E002494
:105A7000C94E00241A4E0024451100244C2C002449
:105A8000194E002444110024D14E0024E00C0024BF
:105A9000F80C0024482C0024A94B1B7833B1A94BE7
:105AA0001B781BB1A84B5B7B002B97D0A74D0D201B
:105AB000698B2C46C1F1010109B224F81A1FFCF7C9
:105AC00051FE02234FF47A72A021A14802921A22B9
:105AD000CDE900430BF01EFD9E4B1B7823B198F8D7
